:100000005AC000002AC400004FC400007BC000009A
:1000100079C0000077C0000075C00000C2C30000B6
:1000200071C000006FC000006DC000000C94940E01
:1000300069C0000067C0000065C0000063C0000028
:1000400065C400005FC0000095C10000C5C100008C
:1000500059C0000057C0000055C0000053C0000048
:1000600051C000004FC00000020000000800020163
:10007000000003040700000000000000000102046B
:10008000081020408001020408102001020408101A
:100090002004040404040404040202020202020311
:1000A000030303030300000000250028002B0000C9
:1000B0001A028602D80511241FBECFEFD8E0DEBF9A
:1000C000CDBF11E0A0E0B1E0ECECFEE102C0059094
:1000D0000D92A235B107D9F728E0A2E5B1E001C041
:1000E0001D92AD39B207E1F710E0CBE5D0E004C0D6
:1000F0002197FE010E94550FC835D107C9F7FCD3DF
:100100000C94640F7DCFFC01918D228D892F90E09E
:10011000805C9F4F821B91098F7399270895FC0182
:10012000918D828D981731F0828DE80FF11D858DAC
:1001300090E008958FEF9FEF0895FC01918D828DDF
:10014000981761F0828DDF01A80FB11D5D968C912B
:10015000928D9F5F9F73928F90E008958FEF9FEF36
:100160000895FC01538D448D252F30E0842F90E0BD
:10017000821B930B541710F0CF96089501970895A2
:1001800081E192E0892B41F080E090E0892B21F021
:1001900048D181110C9400000895FC01848DDF0189
:1001A000A80FB11DA35ABF4F2C91848D90E00196EA
:1001B0008F739927848FA689B7892C93A089B189D9
:1001C0008C9180648C93938D848D981306C00288E3
:1001D000F389E02D80818F7D80830895CF93DF9315
:1001E000EC01888D8823C1F0EA89FB89808185FD37
:1001F00005C0A889B9898C9186FD0EC00FB607FC91
:10020000F5CF808185FFF2CFA889B9898C9185FFD0
:10021000EDCFCE01C2DFE8CFDF91CF910895EF920D
:10022000FF920F931F93CF93DF93EC0181E0888FB0
:100230009B8D8C8D981305C0E889F989808185FD97
:1002400023C0F62E0B8D10E00F5F1F4F0F73112789
:10025000E02E8C8DE8120BC00FB607FCFACFE889B0
:10026000F989808185FFF5CFCE0197DFF2CF8B8DA5
:10027000FE01E80FF11DE35AFF4FF0820B8FEA8970
:10028000FB898081806207C0EE89FF896083E889ED
:10029000F98980818064808381E090E0DF91CF9153
:1002A0001F910F91FF90EF900895CF92DF92EF9200
:1002B000FF921F93CF93DF93EC016A017B01122F12
:1002C000E889F98982E080834115514E6105710505
:1002D000B1F060E079E08DE390E0A70196010E9423
:1002E000330FDA01C9010197A109B109B695A795A4
:1002F00097958795AC01411580E15807A8F0E889EA
:10030000F989108260E874E88EE190E0A701960117
:100310000E94330FBA01A9014150510961097109C5
:100320007695679557954795EC85FD855083EE85C5
:10033000FF854083188EEC89FD891083EA89FB894B
:10034000808180618083EA89FB89808188608083E5
:10035000EA89FB89808180688083EA89FB898081C2
:100360008F7D8083DF91CF911F91FF90EF90DF9081
:10037000CF9008951F920F920FB60F9211242F93D2
:100380008F939F93EF93FF93E0916201F09163014C
:100390008081E0916801F091690182FD12C0908135
:1003A00080916B018F5F8F7320916C01821751F0E8
:1003B000E0916B01F0E0EE5AFE4F958F80936B0158
:1003C00001C08081FF91EF919F918F912F910F90AC
:1003D0000FBE0F901F9018951F920F920FB60F929D
:1003E00011242F933F934F935F936F937F938F933A
:1003F0009F93AF93BF93EF93FF9382E591E0CDDEA0
:10040000FF91EF91BF91AF919F918F917F916F91EC
:100410005F914F913F912F910F900FBE0F901F90C2
:10042000189582E591E06FDE21E0892B09F420E048
:10043000822F0895E2E5F1E01382128288EE93E0C4
:10044000A0E0B0E084839583A683B7838BE091E03E
:100450009183808385EC90E09587848784EC90E09D
:100460009787868780EC90E0918B808B81EC90E081
:10047000938B828B82EC90E0958B848B86EC90E062
:10048000978B868B118E128E138E148E08958F92F9
:100490009F92AF92BF92CF92DF92EF92FF920F9313
:1004A0001F93CF93DF937C018B016C0182E0C80E18
:1004B000D11C4701E5E08E0E911CC0E0D0E0F601B2
:1004C00061916F014AE050E0C80131D15C016EE2F8
:1004D000C80168D08A0D9B1DC80FD91FC814D90444
:1004E00071F74AE050E0F7016581C80120D18C0F17
:1004F0009D1FDF91CF911F910F91FF90EF90DF90A3
:10050000CF90BF90AF909F908F900895EFEEF1E065
:100510008DE191E09183808312821382148215828F
:100520000895CF92DF92EF92FF920F931F93CF9394
:10053000DF936C017A018B01C0E0D0E0CE15DF05BE
:1005400089F0D8016D918D01D601ED91FC9101905A
:10055000F081E02DC6010995892B11F47E0102C0BE
:100560002196ECCFC701DF91CF911F910F91FF90A2
:10057000EF90DF90CF9008956115710579F0FB0140
:1005800001900020E9F73197AF01461B570BDC01C2
:10059000ED91FC910280F381E02D099480E090E0E0
:1005A0000895EACFDC01ED91FC910190F081E02DFE
:1005B00009946FE171E0E0CF8F929F92AF92BF926A
:1005C000CF92DF92EF92FF920F931F93CF93DF931F
:1005D000CDB7DEB7A1970FB6F894DEBF0FBECDBF83
:1005E0007C01D42EC52EDB0119A2223008F42AE0AA
:1005F0008E010F5D1F4F822E912CA12CB12C6D2DE1
:100600007C2DCD01A50194010E94330FD22EC32E63
:10061000DA01015011096A3071058105910510F464
:10062000605D01C0695CF8016083232B242B252BBE
:1006300031F7B801C701A0DFA1960FB6F894DEBF6D
:100640000FBECDBFDF91CF911F910F91FF90EF9023
:10065000DF90CF90BF90AF909F908F900895CF92F2
:10066000DF92EF92FF920F931F93CF93DF93EC01F2
:100670006A017B012115310579F4E881F981019046
:10068000F081E02D642FDF91CF911F910F91FF90AA
:10069000EF90DF90CF9009942A303105D9F477FF9D
:1006A00018C06DE27FDF8C0144275527BA014C1931
:1006B0005D096E097F092AE0CE017EDF800F911F60
:1006C000DF91CF911F910F91FF90EF90DF90CF902E
:1006D00008952AE0B701A601CE01DF91CF911F91C5
:1006E0000F91FF90EF90DF90CF9066CF0F931F9305
:1006F000CF93DF93EC019A01AB01770F660B770B79
:10070000AEDF8C01CE0155DF800F911FDF91CF91BD
:100710001F910F9108952115310541F4DC01ED91F0
:10072000FC910190F081E02D642F099445CF9A014E
:10073000462F50E060E070E0EECF813039F018F0E5
:10074000823051F0089510926E00089580916F00EC
:100750008D7F80936F000895809170008D7F8093CE
:10076000700081E08093B0008091B100887F846048
:100770008093B1001092B3000895CF93C82F809159
:1007800000018C1307C0E8E6F0E0E4918FEF80935E
:10079000000101C0EFEF8E2FD0DF60E08C2FCF91F2
:1007A00063C11F920F920FB60F9211242F933F93A4
:1007B0004F935F936F937F938F939F93AF93BF9369
:1007C000EF93FF938091F8019091F901A091FA01C4
:1007D000B091FB01892B8A2B8B2B51F18091F50174
:1007E000E091F601F091F701908189278083809153
:1007F000F8019091F901A091FA01B091FB0118164E
:1008000019061A061B06BCF48091F8019091F901B3
:10081000A091FA01B091FB010197A109B109809360
:10082000F8019093F901A093FA01B093FB0103C082
:1008300080910001A2DFFF91EF91BF91AF919F9155
:100840008F917F916F915F914F913F912F910F9079
:100850000FBE0F901F90189508951F920F920FB61C
:100860000F9211242F933F934F935F936F937F9336
:100870008F939F93AF93BF93EF93FF93E091010109
:10088000F09102010995FF91EF91BF91AF919F9176
:100890008F917F916F915F914F913F912F910F9029
:1008A0000FBE0F901F9018951F920F920FB60F92C8
:1008B00011242F933F934F935F936F937F938F9365
:1008C0009F93AF93BF93EF93FF93E0910301F09158
:1008D00004010995FF91EF91BF91AF919F918F9185
:1008E0007F916F915F914F913F912F910F900FBE2C
:1008F0000F901F901895089553D0FDDF1ED1C0ECC6
:10090000D0E023D12097E9F33BDCFBCF1F920F927D
:100910000FB60F9211242F933F938F939F93AF9312
:10092000BF938091FD019091FE01A091FF01B091D4
:1009300000023091FC0123E0230F2D3720F40196B3
:10094000A11DB11D05C026E8230F0296A11DB11DF2
:100950002093FC018093FD019093FE01A093FF0181
:10096000B09300028091010290910202A0910302D3
:10097000B09104020196A11DB11D809301029093D4
:100980000202A0930302B0930402BF91AF919F9122
:100990008F913F912F910F900FBE0F901F90189540
:1009A000789484B5826084BD84B5816084BD85B54A
:1009B000826085BD85B5816085BDEEE6F0E0808111
:1009C00081608083E1E8F0E0108280818260808332
:1009D000808181608083E0E8F0E0808181608083B5
:1009E000E1EBF0E0808184608083E0EBF0E08081E7
:1009F00081608083EAE7F0E0808184608083808189
:100A00008260808380818160808380818068808330
:100A10001092C1000895833081F028F4813099F05C
:100A20008230A1F008958730A9F08830B9F0843081
:100A3000D1F4809180008F7D03C0809180008F77FA
:100A400080938000089584B58F7702C084B58F7D30
:100A500084BD08958091B0008F7703C08091B0006D
:100A60008F7D8093B00008951F93CF93DF93282F3D
:100A700030E0F901E759FF4F8491F901E358FF4F46
:100A8000D491F901EF56FF4FC491CC23C1F0162F3A
:100A90008111C1DFEC2FF0E0EE0FFF1FEB55FF4F90
:100AA000A591B4918FB7F894111105C09C91ED2FC9
:100AB000E095E92302C0EC91ED2BEC938FBFDF9121
:100AC000CF911F910895CF93DF9300D0CDB7DEB7BC
:100AD00000E024E630E040E050E0BE016F5F7F4F71
:100AE000809105029091060209D26EE271E082E5E2
:100AF00091E057DD69817A814AE050E082E591E03A
:100B0000F5DDE6CFCF93DF9300D0CDB7DEB77C0124
:100B1000FA82E98200E024E630E040E050E0BE01E5
:100B20006F5F7F4F809105029091060251D161E085
:100B300070E080E090E062D5EBCF26E040E052EC40
:100B400061E070E082E591E0B0CBAF92BF92CF92CE
:100B5000DF92EF92FF920F93A12CB12CC12CD12CDC
:100B6000E12CF12C01E021E030E048EC50E064E3BE
:100B700071E082E895E0D3D202E022E030E048EC78
:100B800050E06AE371E082E895E0C9D203E023E037
:100B900030E048EC50E060E471E083E695E0BFD2DD
:100BA0000F91FF90EF90DF90CF90BF90AF90A9C3CF
:100BB00040E062E08AE0DAD090930602809305027A
:100BC00008951F93CF93DF93EC01142F88A18823FE
:100BD000D9F1482F50E0111115C08C819D810E94E0
:100BE0005B0F28A18C819D81820F911D9D838C8339
:100BF0002A813B818217930738F1888199819D83EF
:100C00008C8322C08E819F810E945B0F88A190E01F
:100C10009195819591092E813F81280F391F3F833E
:100C20002E83488159812417350730F42A813B816E
:100C3000820F931F9F838E83123031F48E8D882311
:100C400019F08E8D81508E8F8E8D8F5F8E8F80E00C
:100C5000DF91CF911F910895FC01CB0140A1442366
:100C6000A1F050E026813781240F351F378326837A
:100C7000628173812617370720F020813181378305
:100C80002683668177810C945B0F08950F931F93E1
:100C9000CF93DF93EC010FB6F8940F928C010D5EA9
:100CA0001F4F9AA119165CF48B89882341F0C80163
:100CB00083D5811122D69AA191509AA3F2CF8FEFBA
:100CC0008AA30F900FBE0FB6F8940F928E01085FA3
:100CD0001F4F99A119165CF48885882341F0C8013B
:100CE0006BD581110AD699A1915099A3F2CF8FEFBC
:100CF00089A30F900FBEDF91CF911F910F9108959F
:100D0000CF93DF93EC010FB6F8940F9228813981CD
:100D10009F8D48A1949FC0011124F901E80FF91F8C
:100D2000FB83EA831E8E3D832C83841B9109820FF3
:100D3000931F9F838E838FEF89A38AA361110AC0BB
:100D40008885882369F0CE01089636D5813041F434
:100D500039D706C0CE010896E9D7CE014396E6D72B
:100D60000F900FBE81E0DF91CF910895EF92FF9237
:100D70001F93CF93DF931F92CDB7DEB7182F662353
:100D800031F0869F90011124C901019602C080E0D4
:100D900090E083966983B5D57C016981009781F0E5
:100DA000611104C0FC019183808304C08396F70124
:100DB00091838083F701178F60A361E0C701A0DFF3
:100DC000C7010F90DF91CF911F91FF90EF90089591
:100DD000AF92BF92CF92DF92EF92FF920F93CF9399
:100DE000DF93CDB7DEB729970FB6F894DEBF0FBEFD
:100DF000CDBF7C016B012E833F834887598790E0EC
:100E0000570188E0A80EB11C0FB6F8940F92F701B5
:100E1000268D878D281710F00230A9F4402FB601D7
:100E2000C701CFDEF7019389992339F0C7014396B3
:100E3000C3D4813021F4C6D602C08111FCCF0F90FB
:100E40000FBE81E04BC04E815F8168857985452B5F
:100E5000462B472B19F40F900FBE3FC0911103C0D2
:100E6000CE010196E6D40F900FBE8AD20FB6F89449
:100E70000F92F70181A18F3F09F411A2F70182A11E
:100E80008F3F09F412A20F900FBEBE016A5F7F4F21
:100E9000CE010196DFD481111DC00FB6F8940F92D8
:100EA000F701968D0F900FBE878D98130FC04E815E
:100EB0005F8168857985C50158D4C701E7DE33D3E2
:100EC000882311F091E0A0CF7DD6FCCFC701DEDEF4
:100ED0002AD3F8CFC701DADE26D380E029960FB6F1
:100EE000F894DEBF0FBECDBFDF91CF910F91FF9081
:100EF000EF90DF90CF90BF90AF900895AF92BF92E8
:100F0000CF92DF92EF92FF920F93CF93DF93CDB703
:100F1000DEB729970FB6F894DEBF0FBECDBF7C01B8
:100F20006B012E833F834887598790E0570183E107
:100F3000A80EB11C0FB6F8940F92F701868D882386
:100F400019F1A680B780B601C70186DEF70101114D
:100F50000DC0868D8150868F8085882389F0C701DA
:100F600008962AD4813061F42DD60AC0B782A682B1
:100F70008389882329F0C70143961ED48111F4CFB9
:100F80000F900FBE81E04AC04E815F8168857985F0
:100F9000452B462B472B19F40F900FBE3EC09111E5
:100FA00003C0CE01019645D40F900FBEE9D10FB614
:100FB000F8940F92F70181A18F3F09F411A2F70174
:100FC00082A18F3F09F412A20F900FBEBE016A5F8B
:100FD0007F4FCE0101963ED481111CC00FB6F8940C
:100FE0000F92F701868D0F900FBE81110FC04E81B9
:100FF0005F8168857985C501B8D3C70147DE93D283
:10100000882311F091E096CFDDD5FCCFC7013EDEFD
:101010008AD2F8CFC7013ADE86D280E029960FB691
:10102000F894DEBF0FBECDBFDF91CF910F91FF903F
:10103000EF90DF90CF90BF90AF900895E091300295
:10104000F09131028081811104C08FEF9FEFDC01AC
:101050000EC0E0913002F09131020780F085E02D62
:101060000084F185E02D82819381A481B5818093F4
:10107000080290930902A0930A02B0930B0208950C
:10108000CF92DF92EF92FF92E091B602F091B70219
:101090006283738384839583C0901202D09013027D
:1010A000E0901402F09015026C157D058E059F05E9
:1010B00078F46091B6027091B70280912E029091FF
:1010C0002F026E5F7F4FFF90EF90DF90CF9064C64E
:1010D0006B017C016091B6027091B7028091300281
:1010E000909131026E5F7F4F57D6809108029091A8
:1010F0000902A0910A02B0910B02C816D906EA06AD
:10110000FB0640F4C0920802D0920902E0920A0263
:10111000F0920B02FF90EF90DF90CF9008955F92D6
:101120006F927F928F929F92AF92BF92CF92DF92F7
:10113000EF92FF920F931F93CF93DF934C01162FE3
:10114000572E5A013901C114D10431F4CA01D9D33F
:101150006C01892B09F4C4C08AE290E0D2D3EC017F
:10116000009779F0DC8ECB8E21E0A21AB108AC0C8E
:10117000BD1CBC01635E7F4FE12FF52DCF010896AA
:1011800006C0C6014ED4ACC0E817F90749F09F016C
:101190004191DB014D93BD01D9012C912111F4CF77
:1011A0001CA2102F0A3008F019E01A8F6E01B2E06D
:1011B000CB0ED11CC601CBD5CE010E96C8D5DB8790
:1011C000CA878AE090E0A0E0B0E0811B9109A10904
:1011D000B1098E879F87A88BB98BDF8BCE8B1DA221
:1011E0001EA21FA218A619A6A301B401C50143D4CB
:1011F00099838883E114F10419F0F701D183C08346
:101200000FB6F8940F92809116028F5F80931602AA
:101210008091B6029091B702892B79F5D093B702ED
:10122000C093B602809116028130B1F588E4E82EB1
:1012300082E0F82EC7017AD5FBE0EF0EF11C26EB19
:10124000E21622E0F206B1F78DE392E06FD582E379
:1012500092E06CD583E292E069D588E192E066D5B0
:101260008DE392E0909331028093300282E392E02A
:1012700090932F0280932E020FC080911002811153
:101280000BC0E091B602F091B702828D081720F0F2
:10129000D093B702C093B60280910C028F5F809307
:1012A0000C028A8D90911102981710F4809311020C
:1012B000ABE08A9FC0011124B601885B9D4F4BD5DE
:1012C0000F900FBE80911002882341F0E091B6028A
:1012D000F091B702828D801708F474D481E001C0C8
:1012E0008FEFDF91CF911F910F91FF90EF90DF90E3
:1012F000CF90BF90AF909F908F907F906F905F90B6
:101300000895AF92BF92CF92DF92EF92FF920F9328
:10131000A12CB12CC12CD12CE12CF12C00E020E02F
:1013200030E045E550E06CE471E08BE39BE0F7DEF4
:101330008130F1F4F8944FEF5FEFBA014093080267
:101340005093090260930A0270930B02809310027B
:1013500010921202109213021092140210921502AF
:101360000F91FF90EF90DF90CF90BF90AF90EFC3C1
:101370000F91FF90EF90DF90CF90BF90AF900895C6
:10138000809107028F5F8093070208958F929F924A
:10139000AF92BF92EF92FF920F931F93CF93DF9381
:1013A000809107028111A9C08091120290911302CD
:1013B000A0911402B09115020196A11DB11D809358
:1013C000120290931302A0931402B093150280901E
:1013D000120290901302A0901402B0901502811492
:1013E0009104A104B104B1F48091300290913102D2
:1013F00020912E0230912F0230933102209330023F
:1014000090932F0280932E0280910D028F5F809324
:101410000D0214DE8091080290910902A0910A0247
:10142000B0910B02C0E088169906AA06BB0608F424
:1014300054C0DBE0E0913002F091310280818111F3
:1014400004C08FEF9FEFDC0113C0E0913002F091F8
:1014500031020780F085E02D00851185F801828139
:101460009381A481B58188169906AA06BB0648F423
:101470008093080290930902A0930A02B0930B0292
:101480002CC07801F2E0EF0EF11CC701C9D4D801DD
:1014900058968D919C915997892B19F0C8010E96F9
:1014A000BFD4F801928D80911102891710F49093A6
:1014B0001102D99FC0011124B701885B9D4F4BD405
:1014C000E091B602F091B702D8015A969C91828DB4
:1014D000981708F4AFCFC1E0ADCFE091B602F0911C
:1014E000B702E28DBBE0EB9FF0011124E85BFD4FFA
:1014F0008081823040F0C1E006C080910F028F5F92
:1015000080930F02C0E080910E028111C1E08C2F08
:10151000DF91CF911F910F91FF90EF90BF90AF900F
:101520009F908F900895EF92FF920F931F93CF9308
:10153000DF930FB6F8940F92809107028150809349
:10154000070280910702882311F080E04EC080914D
:1015500016028823D1F38BE0F82EEE24E3948091D9
:101560002302882339F1E0912A02F0912B02C085F1
:10157000D185CE010E9654D48E010E5F1F4FC80147
:101580004FD49A8D80911102891710F49093110213
:10159000F99EC0011124B801885B9D4FDCD3E09116
:1015A000B602F091B7029A8D828D9817C0F2E09240
:1015B0000E02D5CF80910F02811108C080910E02DA
:1015C000813009F0C2CFFED281E00FC0C1E080912E
:1015D0000F02882399F3DADE8111C0930E02809105
:1015E0000F02815080930F02F2CF0F900FBEDF9158
:1015F000CF911F910F91FF90EF900895CF92DF92BE
:10160000EF92FF92CF93DF9300D000D0CDB7DEB73B
:10161000611571058105910511F4D4D221C069834A
:101620007A838B839C83ACDEC0901202D09013022D
:10163000E0901402F090150269817A818B819C817F
:10164000C60ED71EE81EF91E8091B6029091B70211
:101650000296E6D3C701B60113DD65DF8823E9F200
:101660000F900F900F900F90DF91CF91FF90EF9020
:10167000DF90CF90089580911702882321F180DEBA
:10168000C091180250DFCC23B1F30FB6F8940F923B
:10169000E0911F02F0912002C085D185CE01029613
:1016A000BFD3809116028150809316028091170259
:1016B0008150809317020F900FBE8B8D9C8DB1D1FE
:1016C000CE01AFD1D8CF809148028230A0F27AD239
:1016D000D2CF80910702882321F081E080930E020F
:1016E000089510920E029BE0E09111029E9FF0017E
:1016F0001124E85BFD4F8081811106C080911102A9
:10170000815080931102F0CF8091110290E04BE064
:10171000489F9001499F300D1124F901E85BFD4F6E
:10172000A181B28114960D90BC91A02DB283A183AA
:10173000255B3D4FA217B30731F414962D913C91D0
:101740001597328321832BE0289FF001299FF00D0C
:101750001124E85BFD4F0180F281E02D80859185A9
:101760009093B7028093B6020895CF92DF92EF92E2
:10177000FF926A017B012091B6023091B702B90154
:10178000625F7F4F09D38091B6029091B7020296B3
:1017900047D38091120290911302A0911402B0914C
:1017A0001502BC01CD016C0D7D1D8E1D9F1DFF908E
:1017B000EF90DF90CF9064CC0F931F93CF93DF9384
:1017C000DC011796ED91FC911897C085D1858E01AB
:1017D000025F1F4FC80124D380910702811113C0FB
:1017E0000C501109C8011CD39A8D809111028917E0
:1017F00010F490931102BBE09B9FC0011124B8012B
:10180000885B9D4F03C0B80183E292E0A4D2E091CF
:10181000B602F091B7029A8D828D891720F481E08B
:1018200080930E0201C080E0DF91CF911F910F9154
:10183000089520910D02FC012083409112025091E5
:1018400013026091140270911502418352836383E5
:10185000748308958F929F92AF92BF92CF92DF923E
:10186000EF92FF920F931F93FB010FB6F8940F9224
:10187000C0901202D0901302E0901402F090150272
:1018800030910D02DC012C9111964D915D916D917D
:101890007C911497321729F0C416D506E606F70690
:1018A000F0F4008111812281338146015701841AAD
:1018B000950AA60AB70A80169106A206B30678F41E
:1018C0004C195D096E097F09400F511F621F731F7C
:1018D0004083518362837383ACDF80E001C081E089
:1018E0000F900FBE1F910F91FF90EF90DF90CF9060
:1018F000BF90AF909F908F90089581E080930E02EB
:1019000008950F931F93CF93DF93EC0139DD8091FE
:10191000B802811121C082EC92E09093BE028093C4
:10192000BD021092C0021092BF028BED95E0909321
:10193000BC028093BB021092BA021092B90290933B
:10194000C5028093C40289EB92E09093C302809316
:10195000C20281E08093B802209709F02496CE015C
:1019600001978A3D954008F053C0E091BD02F09187
:10197000BE02ADEBB2E0828193818C179D0728F007
:1019800022E0E93BF20749F443C02081318121156F
:101990003105B1F3DF01F901EECF0D911C911197E3
:1019A0000C5F1F4F208131812D933C938C1B9D0B2D
:1019B0008930910500F1DF01AC0FBD1F13969C9398
:1019C0008E931297D383C28312962D913C911397D5
:1019D0006DEB72E0EB0188819981EC014A815B81BA
:1019E0004217530710F4BC01F5CF11969C938E93C8
:1019F000EB01B983A88380910501909106012281B2
:101A00003381821B930B909306018093050102C0E2
:101A100000E010E088DDC801DF91CF911F910F91A8
:101A20000895CF93DF93009719F1EC012497A8DC78
:101A30008A819B81EDEBF2E0A081B18112962D911C
:101A40003C9113972817390710F4FD01F5CFB9839E
:101A5000A883D183C0832091050130910601820FB4
:101A6000931F9093060180930501DF91CF915BCD89
:101A7000DF91CF91089531E1FC013083319722E26B
:101A800020833197A3E3A0833197608331977083DC
:101A900031971082319760E86083319710823197D7
:101AA00062E06083319763E06083319764E0608334
:101AB000319765E06083319766E06083319767E036
:101AC0006083319768E06083319769E06083319784
:101AD00060E1608331973083319732E13083319711
:101AE00033E13083319734E13083319735E130830E
:101AF000319736E13083319737E13083319738E1E0
:101B00003083319739E13083319730E23083319738
:101B100031E2308331972083319723E2208331975C
:101B2000408331975083319726E22083319727E213
:101B30002083319728E22083319729E2208331974F
:101B400020E32083319721E320838697089589E05D
:101B50008093890083EC809388008BE080938100E0
:101B6000EFE6F0E0808182608083A091B602B091C0
:101B7000B702CD91CDBFDD91DEBFFF91EF91DF9137
:101B8000CF91BF91AF919F918F917F916F915F9115
:101B90004F913F912F911F910F91FF90EF90DF9008
:101BA000CF90BF90AF909F908F907F906F905F90FD
:101BB0004F903F902F901F900F900FBE0F90089561
:101BC00081E008950F920FB6F8940F921F9211249E
:101BD0002F923F924F925F926F927F928F929F923D
:101BE000AF92BF92CF92DF92EF92FF920F931F932B
:101BF0002F933F934F935F936F937F938F939F9315
:101C0000AF93BF93CF93DF93EF93FF93A091B6026F
:101C1000B091B7020DB60D920EB60D925ADDA0919D
:101C2000B602B091B702CD91CDBFDD91DEBFFF917D
:101C3000EF91DF91CF91BF91AF919F918F917F9164
:101C40006F915F914F913F912F911F910F91FF9055
:101C5000EF90DF90CF90BF90AF909F908F907F904C
:101C60006F905F904F903F902F901F900F900FBEFE
:101C70000F9008950F920FB6F8940F921F921124AF
:101C80002F923F924F925F926F927F928F929F928C
:101C9000AF92BF92CF92DF92EF92FF920F931F937A
:101CA0002F933F934F935F936F937F938F939F9364
:101CB000AF93BF93CF93DF93EF93FF93A091B602BF
:101CC000B091B7020DB60D920EB60D925FDB811189
:101CD00000DDA091B602B091B702CD91CDBFDD91EC
:101CE000DEBFFF91EF91DF91CF91BF91AF919F91B7
:101CF0008F917F916F915F914F913F912F911F91A4
:101D00000F91FF90EF90DF90CF90BF90AF909F909A
:101D10008F907F906F905F904F903F902F901F908B
:101D20000F900FBE0F900895A5DF1895FC01039644
:101D3000928381834FEF5FEFBA01438354836583BE
:101D40007683908787839287818710820895FC012C
:101D5000138612860895CF93DF939C01FB01DC016B
:101D60001196CD91DC911297D583C4838E819F818A
:101D7000978386838E819F81DC0115967C936E9379
:101D800014977F836E8333872287F90180818F5F69
:101D90008083DF91CF910895EF92FF920F931F936D
:101DA000CF93DF937C01FB0140815181628173817C
:101DB0004F3F8FEF58076807780721F4E701A9859F
:101DC000BA8512C0D701139614968D919C911597E0
:101DD000EC01088119812A813B8140175107620774
:101DE000730710F0DC01F0CF14968D919C9115973C
:101DF00095838483EC01FF83EE83B783A6831596D6
:101E0000FC93EE931497F386E286F70180818F5F4F
:101E10008083DF91CF911F910F91FF90EF900895F4
:101E2000CF93DF93FC01A285B385848195812681C0
:101E30003781EC013F832E83C681D7819D838C83BC
:101E400011968D919C9112978E179F0721F41296EF
:101E5000DC93CE931197138612868C9181508C93CC
:101E6000DF91CF910895A1E21A2EAA1BBB1BFD01A1
:101E70000DC0AA1FBB1FEE1FFF1FA217B307E40769
:101E8000F50720F0A21BB30BE40BF50B661F771FC1
:101E9000881F991F1A9469F76095709580959095A1
:101EA0009B01AC01BD01CF010895EE0FFF1F05900E
:101EB000F491E02D0994FB01DC0102C001900D9228
:0C1EC00041505040D8F70895F894FFCF2F
:101ECC00FF2C042C04DB05000000000F019102B173
:101EDC0000EE0083009D008F000000000047020D03
:101EEC000A006E616E00696E66006F766600546162
:101EFC00736B20005461736B31005461736B32004F
:101F0C0053657269616C5072696E740049444C453A
:021F1C000000C3
:00000001FF
