:1000000059C0000048C400006DC400007AC0000060
:1000100078C0000076C0000074C00000C0C30000BB
:1000200070C000006EC000006CC000000C9444085A
:1000300068C0000066C0000064C0000062C000002C
:1000400083C400005EC0000094C10000C4C1000071
:1000500058C0000056C0000054C0000052C000004C
:1000600050C000004EC00000020000000800020165
:10007000000003040700000000000000000102046B
:10008000081020408001020408102001020408101A
:100090002004040404040404040202020202020311
:1000A000030303030300000000250028002B0000C9
:1000B0001902850211241FBECFEFD8E0DEBFCDBFED
:1000C00011E0A0E0B1E0ECEEF3E202C005900D9289
:1000D000A634B107D9F728E0A6E4B1E001C01D922B
:1000E000A83AB207E1F710E0CAE5D0E004C02197D2
:1000F000FE010E94E511C835D107C9F71BD40C9445
:10010000F4117ECFFC01918D228D892F90E0805CCF
:100110009F4F821B91098F7399270895FC01918D40
:10012000828D981731F0828DE80FF11D858D90E05A
:1001300008958FEF9FEF0895FC01918D828D9817A0
:1001400061F0828DDF01A80FB11D5D968C91928DBB
:100150009F5F9F73928F90E008958FEF9FEF0895B8
:10016000FC01538D448D252F30E0842F90E0821BBD
:10017000930B541710F0CF9608950197089580E1DE
:1001800092E0892B41F080E090E0892B21F048D16A
:1001900081110C9400000895FC01848DDF01A80FEB
:1001A000B11DA35ABF4F2C91848D90E001968F739F
:1001B0009927848FA689B7892C93A089B1898C91BE
:1001C00080648C93938D848D981306C00288F38984
:1001D000E02D80818F7D80830895CF93DF93EC01A4
:1001E000888D8823C1F0EA89FB89808185FD05C05F
:1001F000A889B9898C9186FD0EC00FB607FCF5CF92
:10020000808185FFF2CFA889B9898C9185FFEDCFD8
:10021000CE01C2DFE8CFDF91CF910895EF92FF9238
:100220000F931F93CF93DF93EC0181E0888F9B8D19
:100230008C8D981305C0E889F989808185FD23C0DC
:10024000F62E0B8D10E00F5F1F4F0F731127E02E5E
:100250008C8DE8120BC00FB607FCFACFE889F9893C
:10026000808185FFF5CFCE0197DFF2CF8B8DFE0128
:10027000E80FF11DE35AFF4FF0820B8FEA89FB89EB
:100280008081806207C0EE89FF896083E889F989EF
:1002900080818064808381E090E0DF91CF911F9125
:1002A0000F91FF90EF900895CF92DF92EF92FF921F
:1002B0001F93CF93DF93EC016A017B01122FE88932
:1002C000F98982E080834115514E61057105B1F0D5
:1002D00060E079E08DE390E0A70196010E94AF1104
:1002E000DA01C9010197A109B109B695A7959795BA
:1002F0008795AC01411580E15807A8F0E889F98994
:10030000108260E874E88EE190E0A70196010E94F7
:10031000AF11BA01A90141505109610971097695DE
:10032000679557954795EC85FD855083EE85FF854C
:100330004083188EEC89FD891083EA89FB898081CE
:1003400080618083EA89FB89808188608083EA8973
:10035000FB89808180688083EA89FB8980818F7D29
:100360008083DF91CF911F91FF90EF90DF90CF902E
:1003700008951F920F920FB60F9211242F938F930F
:100380009F93EF93FF93E0915601F0915701808185
:10039000E0915C01F0915D0182FD12C0908180913D
:1003A0005F018F5F8F7320916001821751F0E091A0
:1003B0005F01F0E0EA5BFE4F958F80935F0101C023
:1003C0008081FF91EF919F918F912F910F900FBEA0
:1003D0000F901F9018951F920F920FB60F92112435
:1003E0002F933F934F935F936F937F938F939F933D
:1003F000AF93BF93EF93FF9386E491E0CDDEFF913F
:10040000EF91BF91AF919F918F917F916F915F918C
:100410004F913F912F910F900FBE0F901F90189505
:1004200086E491E06FDE21E0892B09F420E0822F41
:100430000895E6E4F1E01382128288EE93E0A0E0F2
:10044000B0E084839583A683B7838CE091E09183A9
:10045000808385EC90E09587848784EC90E0978793
:10046000868780EC90E0918B808B81EC90E0938B81
:10047000828B82EC90E0958B848B86EC90E0978B5E
:10048000868B118E128E138E148E08958F929F92EA
:10049000AF92BF92CF92DF92EF92FF920F931F9392
:1004A000CF93DF937C018B016C0182E0C80ED11CDD
:1004B0004701E5E08E0E911CC0E0D0E0F6016191AD
:1004C0006F014AE050E0C80130D15C016EE2C80122
:1004D00067D08A0D9B1DC80FD91FC814D90471F7A6
:1004E0004AE050E0F7016581C8011FD18C0F9D1FC4
:1004F000DF91CF911F910F91FF90EF90DF90CF9000
:10050000BF90AF909F908F900895E3EEF1E08EE161
:1005100091E0918380831282138214821582089560
:10052000CF92DF92EF92FF920F931F93CF93DF93BF
:100530006C017A018B01C0E0D0E0CE15DF0589F0B7
:10054000D8016D918D01D601ED91FC910190F08162
:10055000E02DC6010995892B11F47E0102C0219678
:10056000ECCFC701DF91CF911F910F91FF90EF90DA
:10057000DF90CF9008956115710579F0FB0101902E
:100580000020E9F73197AF01461B570BDC01ED91D5
:10059000FC910280F381E02D099480E090E00895C1
:1005A000DC01ED91FC910190F081E02D099460E275
:1005B00071E0E1CF8F929F92AF92BF92CF92DF9284
:1005C000EF92FF920F931F93CF93DF93CDB7DEB7D8
:1005D000A1970FB6F894DEBF0FBECDBF7C01D42E1D
:1005E000C52EDB0119A2223008F42AE08E010F5D2E
:1005F0001F4F822E912CA12CB12C6D2D7C2DCD0165
:10060000A50194010E94AF11D22EC32EDA01015030
:1006100011096A3071058105910510F4605D01C012
:10062000695CF8016083232B242B252B31F7B8015B
:10063000C701A1DFA1960FB6F894DEBF0FBECDBFF4
:10064000DF91CF911F910F91FF90EF90DF90CF90AE
:10065000BF90AF909F908F900895CF92DF92EF92CE
:10066000FF920F931F93CF93DF93EC016A017B01FD
:100670002115310579F4E881F9810190F081E02DAF
:10068000642FDF91CF911F910F91FF90EF90DF903A
:10069000CF9009942A303105D9F477FF18C06DE264
:1006A0007FDF8C0144275527BA014C195D096E097B
:1006B0007F092AE0CE017EDF800F911FDF91CF916D
:1006C0001F910F91FF90EF90DF90CF9008952AE057
:1006D000B701A601CE01DF91CF911F910F91FF903D
:1006E000EF90DF90CF9066CF0F931F93CF93DF9360
:1006F000EC019A01AB01770F660B770BAEDF8C0133
:10070000CE0155DF800F911FDF91CF911F910F9187
:1007100008952115310541F4DC01ED91FC91019022
:10072000F081E02D642F099445CF9A01462F50E0C7
:1007300060E070E0EECF813039F018F0823051F097
:10074000089510926E00089580916F008D7F8093C0
:100750006F000895809170008D7F8093700081E01C
:100760008093B0008091B100887F84608093B10055
:100770001092B3000895CF93C82F809100018C137D
:1007800007C0E8E6F0E0E4918FEF8093000101C03C
:10079000EFEF8E2FD0DF60E08C2FCF91ACC11F9296
:1007A0000F920FB60F9211242F933F934F935F93A5
:1007B0006F937F938F939F93AF93BF93EF93FF9329
:1007C0008091EC019091ED01A091EE01B091EF01CB
:1007D000892B8A2B8B2B51F18091E901E091EA0161
:1007E000F091EB019081892780838091EC019091B9
:1007F000ED01A091EE01B091EF01181619061A064D
:100800001B06BCF48091EC019091ED01A091EE01EA
:10081000B091EF010197A109B1098093EC01909388
:10082000ED01A093EE01B093EF0103C080910001B0
:10083000A2DFFF91EF91BF91AF919F918F917F9137
:100840006F915F914F913F912F910F900FBE0F903D
:100850001F90189508958230E8F4E82FF0E0EE0F2D
:10086000FF1FEF5FFE4F71836083813041F0809105
:1008700069008C7F482B40936900E89A0895809125
:100880006900440F551F440F551F837F482B409329
:100890006900E99A08951F920F920FB60F921124E2
:1008A0002F933F934F935F936F937F938F939F9378
:1008B000AF93BF93EF93FF93E0910101F091020199
:1008C0000995FF91EF91BF91AF919F918F917F918A
:1008D0006F915F914F913F912F910F900FBE0F90AD
:1008E0001F9018951F920F920FB60F9211242F93FD
:1008F0003F934F935F936F937F938F939F93AF93A8
:10090000BF93EF93FF93E0910301F09104010995E8
:10091000FF91EF91BF91AF919F918F917F916F91D7
:100920005F914F913F912F910F900FBE0F901F90AD
:10093000189508955FD0FDDFFCD1CFEBD0E023D236
:100940002097E9F31CDCFBCF1F920F920FB60F929A
:1009500011242F933F938F939F93AF93BF938091D5
:10096000F1019091F201A091F301B091F401309165
:10097000F00123E0230F2D3720F40196A11DB11DB6
:1009800005C026E8230F0296A11DB11D2093F0019A
:100990008093F1019093F201A093F301B093F401DD
:1009A0008091F5019091F601A091F701B091F801C5
:1009B0000196A11DB11D8093F5019093F601A093BE
:1009C000F701B093F801BF91AF919F918F913F9143
:1009D0002F910F900FBE0F901F9018952FB7F8947E
:1009E0006091F1017091F2018091F3019091F40115
:1009F0002FBF0895789484B5826084BD84B58160EA
:100A000084BD85B5826085BD85B5816085BDEEE616
:100A1000F0E0808181608083E1E8F0E010828081F5
:100A200082608083808181608083E0E8F0E0808163
:100A300081608083E1EBF0E0808184608083E0EB83
:100A4000F0E0808181608083EAE7F0E0808184606B
:100A500080838081826080838081816080838081C7
:100A6000806880831092C10008958E3008F08E5007
:100A700087702091050190E4299F90011124822B19
:100A800080937C0080917A00806480937A008091CA
:100A90007A0086FDFCCF809178002091790090E06B
:100AA000922B0895833081F028F4813099F08230C0
:100AB000A1F008958730A9F08830B9F08430D1F4DE
:100AC000809180008F7D03C0809180008F7780931C
:100AD0008000089584B58F7702C084B58F7D84BD72
:100AE00008958091B0008F7703C08091B0008F7D12
:100AF0008093B00008951F93CF93DF93282F30E0A9
:100B0000F901E759FF4F8491F901E358FF4FD49160
:100B1000F901EF56FF4FC491CC23C1F0162F81117C
:100B2000C1DFEC2FF0E0EE0FFF1FEB55FF4FA5915B
:100B3000B4918FB7F894111105C09C91ED2FE095F9
:100B4000E92302C0EC91ED2BEC938FBFDF91CF91A5
:100B50001F910895C4E0D0E000E02FEF3FEFA9011E
:100B600060E070E08091FE019091FF0191D48130AE
:100B700099F72AE030E040E050E060E070E08091DA
:100B800004029091050284D4813031F72AE030E0EC
:100B900040E050E060E070E080910002909101023E
:100BA00077D4813001F580E060DF20910802309138
:100BB0000902F901EE0FFF1FE65FFD4F918380836D
:100BC000C9010196BE010E949C1190930902809375
:100BD000080220E030E0A90160E070E080910002AE
:100BE0009091010270D300E020E030E0A90160E0C4
:100BF00070E0809102029091030265D3ADCFCF9354
:100C0000DF9300D000D0CDB7DEB7A1D669837A8359
:100C10008B839C8394E0E92EF12C00E02FEF3FEFD3
:100C2000A90160E070E0809102029091030230D44B
:100C3000813009F03CC02FEF3FEFA90160E070E088
:100C4000809100029091010223D4813029F5E09136
:100C50000602F0910702EE0FFF1FE65FFD4F608175
:100C600071814AE050E086E491E03EDD8091060229
:100C7000909107020196B7010E949C119093070280
:100C80008093060220E030E0A90160E070E08091EE
:100C900000029091010217D300E020E030E0A901AA
:100CA00060E070E080910402909105020CD348E866
:100CB00053E160E070E0CE0101968FD7AECFCF92C6
:100CC000DF92EF92FF921092F90188DE6B017C01B6
:100CD0008091FA019091FB01A091FC01B091FD017E
:100CE000A7019601281B390B4A0B5B0B293C3105E8
:100CF00041055105A8F069EF71E08091FE019091E6
:100D0000FF01A2D339ECC316D104E104F10440F091
:100D1000C092FA01D092FB01E092FC01F092FD0139
:100D20008091F9018111FED0FF90EF90DF90CF907C
:100D3000089526E040E052EC61E070E086E491E046
:100D4000B3DA43E060E081E081D29093FF018093C9
:100D5000FE0164E084E0ACD290930502809304022B
:100D600060E084E0A5D2909303028093020281E0C8
:100D700040D3909301028093000243E050E06FE57E
:100D800076E080E068CDAF92BF92CF92DF92EF9293
:100D9000FF920F93A12CB12CC12CD12CE12CF12C62
:100DA00001E020E030E048EC50E06FE271E08AEAD8
:100DB00095E094D420E030E048EC50E068E371E046
:100DC0008FEF95E08BD40F91FF90EF90DF90CF9055
:100DD000BF90AF9077C531E1FC013083319722E2BB
:100DE00020833197A3E3A083319760833197708389
:100DF00031971082319760E8608331971082319784
:100E000062E06083319763E06083319764E06083E0
:100E1000319765E06083319766E06083319767E0E2
:100E20006083319768E06083319769E06083319730
:100E300060E1608331973083319732E130833197BD
:100E400033E13083319734E13083319735E13083BA
:100E5000319736E13083319737E13083319738E18C
:100E60003083319739E13083319730E230833197E5
:100E700031E2308331972083319723E22083319709
:100E8000408331975083319726E22083319727E2C0
:100E90002083319728E22083319729E220833197FC
:100EA00020E32083319721E320838697089589E00A
:100EB0008093890083EC809388008BE0809381008D
:100EC000EFE6F0E0808182608083A091C102B09162
:100ED000C202CD91CDBFDD91DEBFFF91EF91DF91D9
:100EE000CF91BF91AF919F918F917F916F915F91C2
:100EF0004F913F912F911F910F91FF90EF90DF90B5
:100F0000CF90BF90AF909F908F907F906F905F90A9
:100F10004F903F902F901F900F900FBE0F9008950D
:100F200081E008950F920FB6F8940F921F9211244A
:100F30002F923F924F925F926F927F928F929F92E9
:100F4000AF92BF92CF92DF92EF92FF920F931F93D7
:100F50002F933F934F935F936F937F938F939F93C1
:100F6000AF93BF93CF93DF93EF93FF93A091C10211
:100F7000B091C2020DB60D920EB60D92C3D6A091DD
:100F8000C102B091C202CD91CDBFDD91DEBFFF9114
:100F9000EF91DF91CF91BF91AF919F918F917F9111
:100FA0006F915F914F913F912F911F910F91FF9002
:100FB000EF90DF90CF90BF90AF909F908F907F90F9
:100FC0006F905F904F903F902F901F900F900FBEAB
:100FD0000F9008950F920FB6F8940F921F9211245C
:100FE0002F923F924F925F926F927F928F929F9239
:100FF000AF92BF92CF92DF92EF92FF920F931F9327
:101000002F933F934F935F936F937F938F939F9310
:10101000AF93BF93CF93DF93EF93FF93A091C10260
:10102000B091C2020DB60D920EB60D929ED48111F2
:1010300069D6A091C102B091C202CD91CDBFDD9120
:10104000DEBFFF91EF91DF91CF91BF91AF919F9163
:101050008F917F916F915F914F913F912F911F9150
:101060000F91FF90EF90DF90CF90BF90AF909F9047
:101070008F907F906F905F904F903F902F901F9038
:101080000F900FBE0F900895A5DF18951F93CF9373
:10109000DF93EC01142F88A181110BC08881998105
:1010A000892B09F041C08A819B81A3D71B821A82B8
:1010B0003CC0482F50E0111115C08C819D810E94C9
:1010C000EB1128A18C819D81820F911D9D838C83C2
:1010D0002A813B818217930738F1888199819D830A
:1010E0008C8322C08E819F810E94EB1188A190E0A9
:1010F0009195819591092E813F81280F391F3F835A
:101100002E83488159812417350730F42A813B8189
:10111000820F931F9F838E83123031F48E8D88232C
:1011200019F08E8D81508E8F80E09E8D9F5F9E8FF7
:10113000DF91CF911F910895FC01CB0140A1442381
:10114000A1F050E026813781240F351F3783268395
:10115000628173812617370720F020813181378320
:101160002683668177810C94EB1108950F931F936A
:10117000CF93DF93EC010FB6F8940F928C010D5EC4
:101180001F4F9AA119165CF48B89882341F0C8017E
:101190002CD68111CBD69AA191509AA3F2CF8FEF82
:1011A0008AA30F900FBE0FB6F8940F928E01085FBE
:1011B0001F4F99A119165CF48885882341F0C80156
:1011C00014D68111B3D699A1915099A3F2CF8FEF84
:1011D00089A30F900FBEDF91CF911F910F910895BA
:1011E000CF93DF93EC010FB6F8940F9228813981E9
:1011F0009F8D48A1949FC0011124F901E80FF91FA8
:10120000FB83EA831E8E3D832C83841B9109820F0E
:10121000931F9F838E838FEF89A38AA361110AC0D6
:101220008885882369F0CE010896DFD5813041F4A6
:1012300079DE06C0CE010896E2D7CE014396DFD70D
:101240000F900FBE81E0DF91CF910895EF92FF9252
:101250001F93CF93DF931F92CDB7DEB7182F66236E
:1012600031F0869F90011124C901019602C080E0EF
:1012700090E08396698309D77C016981009781F0AA
:10128000611104C0FC019183808304C08396F7013F
:1012900091838083F701178F60A361E0C701A0DF0E
:1012A000C7010F90DF91CF911F91FF90EF900895AC
:1012B000CF93C62F42E060E0C9DF009711F0FC0138
:1012C000C68FCF910895AF92BF92CF92DF92EF92E7
:1012D000FF920F93CF93DF93CDB7DEB729970FB669
:1012E000F894DEBF0FBECDBF7C016B012E833F8320
:1012F0004887598790E0570188E0A80EB11C0FB6C7
:10130000F8940F92F701268D878D281710F0023080
:10131000A9F4402FB601C701B9DEF70193899923DB
:1013200039F0C701439661D5813021F4FBDD02C05D
:101330008111FCCF0F900FBE81E04BC04E815F81C9
:1013400068857985452B462B472B19F40F900FBEE6
:101350003FC0911103C0CE01019684D50F900FBEFE
:10136000F0D20FB6F8940F92F70181A18F3F09F4E4
:1013700011A2F70182A18F3F09F412A20F900FBEB4
:10138000BE016A5F7F4FCE0101967DD581111DC0E0
:101390000FB6F8940F92F701968D0F900FBE878DC0
:1013A00098130FC04E815F8168857985C501F6D499
:1013B000C701DCDEA7D3882311F091E0A0CFB2DD16
:1013C000FCCFC701D3DE9ED3F8CFC701CFDE9AD3BF
:1013D00080E029960FB6F894DEBF0FBECDBFDF9137
:1013E000CF910F91FF90EF90DF90CF90BF90AF9093
:1013F00008950F93CF93DF9383E290E046D6EC01FC
:10140000892BE9F01B821A82198218821D821C82A4
:101410001F821E821E8E81E08F8F18A28FEF89A3FC
:101420008AA3CE010896EBD6CE014396E8D600E01B
:1014300020E030E0A90160E070E0CE0144DFCE01A1
:10144000DF91CF910F910895CF93DF93FC01968D9B
:10145000878D9817C8F4868D8F5F868F82A18F3F06
:1014600071F48389882371F0EB01CF014396BDD4D9
:10147000882341F0209731F081E0888306C082A163
:101480008F5F82A381E001C080E0DF91CF9108955A
:10149000AF92BF92CF92DF92EF92FF920F93CF93D2
:1014A000DF93CDB7DEB729970FB6F894DEBF0FBE36
:1014B000CDBF7C016B012E833F834887598790E025
:1014C000570183E1A80EB11C0FB6F8940F92F701F3
:1014D000868D882361F1A680B780B601C7012CDE16
:1014E000F701011116C0868D8150868F8081918110
:1014F000892B21F4B8D5F70193838283F701808586
:10150000882389F0C701089670D4813061F40ADD20
:101510000AC0B782A6828389882329F0C70143962F
:1015200064D48111F4CF0F900FBE81E056C04E817C
:101530005F8168857985452B462B472B19F40F90E1
:101540000FBE4AC0911103C0CE0101968BD40F90FB
:101550000FBEF7D10FB6F8940F92F70181A18F3F1C
:1015600009F411A2F70182A18F3F09F412A20F9092
:101570000FBEBE016A5F7F4FCE01019684D48111F8
:1015800028C00FB6F8940F92F701868D0F900FBE0A
:1015900081111BC080819181892B41F40FB6F89491
:1015A0000F9282819381C6D40F900FBE4E815F81CE
:1015B00068857985C501F2D3C701D8DDA3D2882318
:1015C00011F091E081CFAEDCFCCFC701CFDD9AD224
:1015D000F8CFC701CBDD96D280E029960FB6F894FC
:1015E000DEBF0FBECDBFDF91CF910F91FF90EF9087
:1015F000DF90CF90BF90AF900895E0913B02F091C3
:101600003C028081811104C08FEF9FEFDC010EC08E
:10161000E0913B02F0913C020780F085E02D0084D0
:10162000F185E02D82819381A481B581809313029D
:1016300090931402A0931502B09316020895CF92CE
:10164000DF92EF92FF92E091C102F091C2026283B9
:10165000738384839583C0901D02D0901E02E09016
:101660001F02F09020026C157D058E059F0578F411
:101670006091C1027091C2028091390290913A0248
:101680006E5F7F4FFF90EF90DF90CF90EEC56B01C4
:101690007C016091C1027091C20280913B029091E5
:1016A0003C026E5F7F4FE1D580911302909114024E
:1016B000A0911502B0911602C816D906EA06FB06DB
:1016C00040F4C0921302D0921402E0921502F092FC
:1016D0001602FF90EF90DF90CF9008955F926F9287
:1016E0007F928F929F92AF92BF92CF92DF92EF92B2
:1016F000FF920F931F93CF93DF934C01162F572E1A
:101700005A013901C114D10431F4CA01BED46C01AB
:10171000892B09F4C6C08CE290E0B7D4EC010097A5
:1017200079F0DC8ECB8E21E0A21AB108AC0CBD1C86
:10173000BC01635E7F4FE12FF52DCF01089606C0F7
:10174000C60133D5AEC0E817F90749F09F014191B2
:10175000DB014D93BD01D9012C912111F4CF1CA2C5
:10176000102F0A3008F019E01A8F1DA31EA26E0177
:10177000B2E0CB0ED11CC60153D5CE010E9650D58A
:10178000DB87CA878AE090E0A0E0B0E0811B910986
:10179000A109B1098E879F87A88BB98BDF8BCE8B70
:1017A0001FA218A619A61AA61BA6A301B401C5015B
:1017B00012DB99838883E114F10419F0F701D183D6
:1017C000C0830FB6F8940F92809121028F5F8093AF
:1017D00021028091C1029091C202892B79F5D093A8
:1017E000C202C093C102809121028130B1F583E52C
:1017F000E82E82E0F82EC70102D5FBE0EF0EF11CC7
:1018000021ECE21622E0F206B1F788E492E0F7D488
:101810008DE392E0F4D48EE292E0F1D483E292E0A0
:10182000EED488E492E090933C0280933B028DE3F7
:1018300092E090933A02809339020FC080911B028C
:1018400081110BC0E091C102F091C202828D081794
:1018500020F0D093C202C093C102809117028F5F23
:10186000809317028A8D90911C02981710F4809330
:101870001C02ABE08A9FC0011124B6018D5A9D4F16
:10188000D3D40F900FBE80911B02882341F0E091CA
:10189000C102F091C202828D801708F443DB81E01F
:1018A00001C08FEFDF91CF911F910F91FF90EF90CB
:1018B000DF90CF90BF90AF909F908F907F906F9070
:1018C0005F900895AF92BF92CF92DF92EF92FF9216
:1018D0000F93A12CB12CC12CD12CE12CF12C00E0C8
:1018E00020E030E045E550E061E471E084E59EE011
:1018F000F5DE8130F1F4F8944FEF5FEFBA014093D9
:101900001302509314026093150270931602809391
:101910001B0210921D0210921E0210921F021092C2
:1019200020020F91FF90EF90DF90CF90BF90AF908B
:10193000BECA0F91FF90EF90DF90CF90BF90AF9015
:101940000895809112028F5F8093120208950FB65E
:10195000F8940F9260911D0270911E0280911F02F7
:10196000909120020F900FBE08958F929F92AF9298
:10197000BF92EF92FF920F931F93CF93DF938091CB
:1019800012028111A9C080911D0290911E02A091A6
:101990001F02B09120020196A11DB11D80931D026E
:1019A00090931E02A0931F02B093200280901D020C
:1019B00090901E02A0901F02B0902002811491040A
:1019C000A104B104B1F480913B0290913C022091BA
:1019D000390230913A0230933C0220933B029093BB
:1019E0003A0280933902809118028F5F8093180227
:1019F00004DE8091130290911402A0911502B0911F
:101A00001602C0E088169906AA06BB0608F454C060
:101A1000DBE0E0913B02F0913C028081811104C047
:101A20008FEF9FEFDC0113C0E0913B02F0913C028D
:101A30000780F085E02D00851185F8018281938172
:101A4000A481B58188169906AA06BB0648F480933E
:101A5000130290931402A0931502B09316022CC0A7
:101A60007801F2E0EF0EF11CC70143D4D80158967B
:101A70008D919C915997892B19F0C8010E9639D4F4
:101A8000F801928D80911C02891710F490931C022A
:101A9000D99FC0011124B7018D5A9D4FC5D3E09144
:101AA000C102F091C202D8015A969C91828D98177A
:101AB00008F4AFCFC1E0ADCFE091C102F091C20216
:101AC000E28DBBE0EB9FF0011124ED5AFD4F8081C8
:101AD000823040F0C1E006C080911A028F5F80938F
:101AE0001A02C0E0809119028111C1E08C2FDF91B0
:101AF000CF911F910F91FF90EF90BF90AF909F906B
:101B00008F900895EF92FF920F931F93CF93DF93DF
:101B10000FB6F8940F9280911202815080931202B6
:101B200080911202882311F080E04EC08091210242
:101B30008823D1F38BE0F82EEE24E39480912E02DB
:101B4000882339F1E0913502F0913602C085D185C4
:101B5000CE010E96CED38E010E5F1F4FC801C9D3A2
:101B60009A8D80911C02891710F490931C02F99EA3
:101B7000C0011124B8018D5A9D4F56D3E091C10286
:101B8000F091C2029A8D828D9817C0F2E0921902EC
:101B9000D5CF80911A02811108C08091190281303D
:101BA00009F0C2CFBFD981E00FC0C1E080911A0215
:101BB000882399F3DADE8111C093190280911A0209
:101BC000815080931A02F2CF0F900FBEDF91CF9118
:101BD0001F910F91FF90EF900895AF92BF92CF9217
:101BE000DF92EF92FF920F931F93CF93DF9300D07A
:101BF00000D0CDB7DEB75C0149835A836B837C8309
:101C0000A0DE00911D0210911E0220911F02309152
:101C10002002F50180819181A281B38149815A819D
:101C20006B817C816C017D01C40ED51EE61EF71E02
:101C3000081719072A073B0730F4C816D906EA0621
:101C4000FB0660F405C0C816D906EA06FB0640F09C
:101C500091E00C151D052E053F0518F090E001C020
:101C600091E0F501C082D182E282F382992349F0AA
:101C70008091C1029091C20202963BD3C701B60186
:101C8000DEDC40DF811101C04DD90F900F900F9025
:101C90000F90DF91CF911F910F91FF90EF90DF9008
:101CA000CF90BF90AF90089580912202882321F1B8
:101CB00048DEC091230226DFCC23B1F30FB6F8949F
:101CC0000F92E0912A02F0912B02C085D185CE01BE
:101CD00002960FD38091210281508093210280913E
:101CE00022028150809322020F900FBE8B8D9C8D1B
:101CF0005CD2CE015AD2D8CF809153028230A0F26A
:101D000011D9D2CF80911202882321F081E08093F3
:101D100019020895109219029BE0E0911C029E9F07
:101D2000F0011124ED5AFD4F8081811106C0809190
:101D30001C02815080931C02F0CF80911C0290E025
:101D40004BE0489F9001499F300D1124F901ED5A55
:101D5000FD4FA181B28114960D90BC91A02DB2834C
:101D6000A1832A5A3D4FA217B30731F414962D913F
:101D70003C911597328321832BE0289FF001299F06
:101D8000F00D1124ED5AFD4F0180F281E02D808588
:101D900091859093C2028093C1020895CF92DF9201
:101DA000EF92FF926A017B012091C1023091C20241
:101DB000B901625F7F4F59D28091C1029091C202F6
:101DC000029697D280911D0290911E02A0911F024F
:101DD000B0912002BC01CD016C0D7D1D8E1D9F1D9B
:101DE000FF90EF90DF90CF902ACC0F931F93CF936B
:101DF000DF93DC011796ED91FC911897C085D18592
:101E00008E01025F1F4FC80174D2809112028111AE
:101E100013C00C501109C8016CD29A8D80911C021C
:101E2000891710F490931C02BBE09B9FC001112402
:101E3000B8018D5A9D4F03C0B8018EE292E0F4D1F3
:101E4000E091C102F091C2029A8D828D891720F42F
:101E500081E08093190201C080E0DF91CF911F9152
:101E60000F91089520911802FC01208340911D02DA
:101E700050911E0260911F02709120024183528393
:101E80006383748308958F929F92AF92BF92CF9293
:101E9000DF92EF92FF920F931F93FB010FB6F8941E
:101EA0000F92C0901D02D0901E02E0901F02F09091
:101EB000200230911802DC012C9111964D915D9118
:101EC0006D917C911497321729F0C416D506E60659
:101ED000F706F0F400811181228133814601570118
:101EE000841A950AA60AB70A80169106A206B306B6
:101EF00078F44C195D096E097F09400F511F621F6C
:101F0000731F4083518362837383ACDF80E001C021
:101F100081E00F900FBE1F910F91FF90EF90DF9027
:101F2000CF90BF90AF909F908F90089581E0809365
:101F3000190208950F931F93CF93DF93FC01892B10
:101F400009F452C0828DA091C102B091C2025A968A
:101F50009C91891708F048C046855785608971892A
:101F600077FD12C0A091C102B091C2025A969C9115
:101F70004AE050E060E070E0491B510961097109D5
:101F800046875787608B718B2BE0829FC00111249D
:101F90008D5A9D4F2485358528173907F1F48F0117
:101FA000EF012296CE01A5D1E091C102F091C202CB
:101FB000928DF801928F80911C02891710F49093F2
:101FC0001C02FBE09F9FC0011124BE018D5A9D4F52
:101FD000DF91CF911F910F9127C1A091C102B091C4
:101FE000C2025A968C91828FDF91CF911F910F91EF
:101FF00008950F931F93CF93DF93FC01892B11F466
:1020000080E02CC086A1815086A3228D95A129173E
:10201000B9F38111F5CFEF018F010E5F1F4FC8019A
:1020200068D19DA19A8F4AE050E060E070E0491BC2
:102030005109610971094E875F87688B798B80919F
:102040001C02891710F490931C022BE0929FC00190
:102050001124B8018D5A9D4FE7D081E0DF91CF91D7
:102060001F910F9108958091C1029091C202892B16
:1020700039F0E091C102F091C20286A18F5F86A380
:102080008091C1029091C20208950F931F93CF9344
:10209000DF93EC0156DC8091C302811121C08DECED
:1020A00092E09093C9028093C8021092CB021092E2
:1020B000CA028BED95E09093C7028093C6021092FE
:1020C000C5021092C4029093D0028093CF0284EC98
:1020D00092E09093CE028093CD0281E08093C30280
:1020E000209709F02496CE0101978A3D954008F08B
:1020F00053C0E091C802F091C902A8ECB2E082811D
:1021000093818C179D0728F022E0E43CF20749F404
:1021100043C02081318121153105B1F3DF01F9017F
:10212000EECF0D911C9111970C5F1F4F20813181D3
:102130002D933C938C1B9D0B8930910500F1DF01A1
:10214000AC0FBD1F13969C938E931297D383C283BB
:1021500012962D913C91139768EC72E0EB01888107
:102160009981EC014A815B814217530710F4BC014D
:10217000F5CF11969C938E93EB01B983A883809140
:1021800006019091070122813381821B930B90936A
:1021900007018093060102C000E010E0B3DCC80133
:1021A000DF91CF911F910F910895CF93DF93009707
:1021B00019F1EC012497C5DB8A819B81E8ECF2E000
:1021C000A081B18112962D913C9113972817390760
:1021D00010F4FD01F5CFB983A883D183C08320918A
:1021E000060130910701820F931F9093070180939E
:1021F0000601DF91CF9186CCDF91CF910895FC014C
:102200000396928381834FEF5FEFBA014383548338
:10221000658376839087878392878187108208956C
:10222000FC01138612860895CF93DF939C01FB0176
:10223000DC011196CD91DC911297D583C4838E81F8
:102240009F81978386838E819F81DC0115967C9385
:102250006E9314977F836E8333872287F901808181
:102260008F5F8083DF91CF910895EF92FF920F935C
:102270001F93CF93DF937C01FB01408151816281E9
:1022800073814F3F8FEF58076807780721F4E70104
:10229000A985BA8512C0D701139614968D919C9189
:1022A0001597EC01088119812A813B81401751075C
:1022B0006207730710F0DC01F0CF14968D919C91AA
:1022C000159795838483EC01FF83EE83B783A68300
:1022D0001596FC93EE931497F386E286F7018081BE
:1022E0008F5F8083DF91CF911F910F91FF90EF90CF
:1022F0000895CF93DF93FC01A285B38584819581F6
:1023000026813781EC013F832E83C681D7819D834F
:102310008C8311968D919C9112978E179F0721F4B3
:102320001296DC93CE931197138612868C9181506E
:102330008C93DF91CF91089597FB072E16F40094AC
:1023400006D077FD08D02DD007FC05D03EF490953F
:1023500081959F4F0895709561957F4F0895A1E2F3
:102360001A2EAA1BBB1BFD010DC0AA1FBB1FEE1F0F
:10237000FF1FA217B307E407F50720F0A21BB30B5A
:10238000E40BF50B661F771F881F991F1A9469F7D6
:1023900060957095809590959B01AC01BD01CF0132
:1023A0000895AA1BBB1B51E107C0AA1FBB1FA6179C
:1023B000B70710F0A61BB70B881F991F5A95A9F7EE
:1023C00080959095BC01CD010895EE0FFF1F0590FB
:1023D000F491E02D0994FB01DC0102C001900D9203
:0C23E00041505040D8F70895F894FFCF0A
:1023EC00FF2A042A0401DB05000000000E01900204
:1023FC00B000ED0082009C008E0000000000460240
:10240C000D0A006E616E00696E66006F7666005094
:10241C00726F647563657200436F6E73756D657270
:06242C000049444C45008C
:00000001FF
