:1000000055C00000C5C30000EAC3000076C0000070
:1000100074C0000072C0000070C000005DC300002A
:100020006CC000006AC0000068C000000C940C1393
:1000300064C0000062C0000060C000005EC000003C
:1000400001C400005AC0000090C10000C0C10000FF
:1000500054C0000002000000080002010000030478
:10006000070000000000000000010204081020400A
:100070008001020408102001020408102004040476
:100080000404040404020202020202030303030341
:100090000300000000250028002B000000000024C1
:1000A0000027002A000015028102850811241FBEC6
:1000B000CFE5D4E0DEBFCDBF10E0A0E6B0E0EAE5DA
:1000C000F8E202C005900D92AE3AB107D9F728E0E8
:1000D000AEEAB0E001C01D92A632B207E1F710E02F
:1000E000C6E5D0E004C02197FE010E94CD13C335C0
:1000F000D107C9F79DD30C942B1482CFFC01918DAD
:10010000228D892F90E0805C9F4F821B91098F7315
:1001100099270895FC01918D828D981731F0828D79
:10012000E80FF11D858D90E008958FEF9FEF089502
:10013000FC01918D828D981761F0828DDF01A80FEF
:10014000B11D5D968C91928D9F5F9F73928F90E011
:1001500008958FEF9FEF0895FC01538D448D252F57
:1001600030E0842F90E0821B930B541710F0CF9651
:100170000895019708958CE092E0892B41F080E08A
:1001800090E0892B21F048D181110C940000089552
:10019000FC01848DDF01A80FB11DA35ABF4F2C9124
:1001A000848D90E001968F739927848FA689B789F3
:1001B0002C93A089B1898C9180648C93938D848DCC
:1001C000981306C00288F389E02D80818F7D80839B
:1001D0000895CF93DF93EC01888D8823C1F0EA89DD
:1001E000FB89808185FD05C0A889B9898C9186FD30
:1001F0000EC00FB607FCF5CF808185FFF2CFA8892E
:10020000B9898C9185FFEDCFCE01C2DFE8CFDF91B8
:10021000CF910895EF92FF920F931F93CF93DF93A7
:10022000EC0181E0888F9B8D8C8D981305C0E88947
:10023000F989808185FD23C0F62E0B8D10E00F5FBC
:100240001F4F0F731127E02E8C8DE8120BC00FB6D5
:1002500007FCFACFE889F989808185FFF5CFCE01C7
:1002600097DFF2CF8B8DFE01E80FF11DE35AFF4FB0
:10027000F0820B8FEA89FB898081806207C0EE895A
:10028000FF896083E889F98980818064808381E0C7
:1002900090E0DF91CF911F910F91FF90EF90089523
:1002A000CF92DF92EF92FF921F93CF93DF93EC01F7
:1002B0006A017B01122FE889F98982E08083411568
:1002C000514E61057105B1F060E079E08DE390E099
:1002D000A70196010E94AB13DA01C9010197A10998
:1002E000B109B695A79597958795AC01411580E121
:1002F0005807A8F0E889F989108260E874E88EE16F
:1003000090E0A70196010E94AB13BA01A9014150E8
:100310005109610971097695679557954795EC855F
:10032000FD855083EE85FF854083188EEC89FD891D
:100330001083EA89FB89808180618083EA89FB8957
:10034000808188608083EA89FB89808180688083DE
:10035000EA89FB8980818F7D8083DF91CF911F9116
:10036000FF90EF90DF90CF9008951F920F920FB6FD
:100370000F9211242F938F939F93EF93FF93E0910C
:10038000C000F091C1008081E091C600F091C700EB
:1003900082FD12C090818091C9008F5F8F73209180
:1003A000CA00821751F0E091C900F0E0E055FF4F1C
:1003B000958F8093C90001C08081FF91EF919F913B
:1003C0008F912F910F900FBE0F901F9018951F9235
:1003D0000F920FB60F9211242F933F934F935F9379
:1003E0006F937F938F939F93AF93BF93EF93FF93FD
:1003F00080EB90E0CDDEFF91EF91BF91AF919F91A7
:100400008F917F916F915F914F913F912F910F90BD
:100410000FBE0F901F90189580EB90E06FDE21E0EB
:10042000892B09F420E0822F0895E0EBF0E013829D
:10043000128288EE93E0A0E0B0E084839583A683E7
:10044000B78383E790E09183808385EC90E0958784
:10045000848784EC90E09787868780EC90E0918B8E
:10046000808B81EC90E0938B828B82EC90E0958B7B
:10047000848B86EC90E0978B868B118E128E138E78
:10048000148E08958F929F92AF92BF92CF92DF9277
:10049000EF92FF920F931F93CF93DF937C018B0119
:1004A0006C0182E0C80ED11C4701E5E08E0E911C64
:1004B000C0E0D0E0F60161916F014AE050E0C80170
:1004C000D1D05C016EE2C80167D08A0D9B1DC80FB8
:1004D000D91FC814D90471F74AE050E0F7016581CB
:1004E000C801C0D08C0F9D1FDF91CF911F910F913C
:1004F000FF90EF90DF90CF90BF90AF909F908F9044
:100500000895EDE4F1E085E890E091838083128224
:100510001382148215820895CF92DF92EF92FF9298
:100520000F931F93CF93DF936C017A018B01C0E08F
:10053000D0E0CE15DF0589F0D8016D918D01D6018F
:10054000ED91FC910190F081E02DC6010995892B78
:1005500011F47E0102C02196ECCFC701DF91CF914B
:100560001F910F91FF90EF90DF90CF90089561154C
:10057000710579F0FB0101900020E9F73197AF0197
:10058000461B570BDC01ED91FC910280F381E02DBD
:10059000099480E090E00895DC01ED91FC910190D8
:1005A000F081E02D09948F929F92AF92BF92CF92EB
:1005B000DF92EF92FF920F931F93CF93DF93CDB70C
:1005C000DEB7A1970FB6F894DEBF0FBECDBF7C019A
:1005D000D42EC52EDB0119A2223008F42AE08E01A8
:1005E0000F5D1F4F822E912CA12CB12C6D2D7C2DD7
:1005F000CD01A50194010E94AB13D22EC32EDA01C6
:10060000015011096A3071058105910510F4605D92
:1006100001C0695CF8016083232B242B252B31F763
:10062000B801C701A4DFA1960FB6F894DEBF0FBED4
:10063000CDBFDF91CF911F910F91FF90EF90DF9091
:10064000CF90BF90AF909F908F9008952115310566
:1006500041F4DC01ED91FC910190F081E02D642FDB
:100660000994A1CF9A01462F50E060E070E0EECFF0
:10067000813039F018F0823051F0089510926E00F8
:10068000089580916F008D7F80936F000895809111
:1006900070008D7F8093700081E08093B000809126
:1006A000B100887F84608093B1001092B3000895F8
:1006B000CF93C82F809160008C1307C0E4E5F0E071
:1006C000E4918FEF8093600001C0EFEF8E2FD0DFB9
:1006D00060E08C2FCF915BC21F920F920FB60F92EA
:1006E00011242F933F934F935F936F937F938F9337
:1006F0009F93AF93BF93EF93FF9380915601909197
:100700005701A0915801B0915901892B8A2B8B2B4D
:1007100051F180915301E0915401F0915501908184
:10072000892780838091560190915701A0915801AB
:10073000B0915901181619061A061B06BCF48091CF
:10074000560190915701A0915801B091590101971C
:10075000A109B1098093560190935701A0935801C4
:10076000B093590103C080916000A2DFFF91EF9127
:10077000BF91AF919F918F917F916F915F914F91B9
:100780003F912F910F900FBE0F901F9018950895D5
:100790001F920F920FB60F9211242F933F934F93F6
:1007A0005F936F937F938F939F93AF93BF93EF93D9
:1007B000FF93E0916100F09162000995FF91EF9144
:1007C000BF91AF919F918F917F916F915F914F9169
:1007D0003F912F910F900FBE0F901F9018951F9271
:1007E0000F920FB60F9211242F933F934F935F9365
:1007F0006F937F938F939F93AF93BF93EF93FF93E9
:10080000E0916300F09164000995FF91EF91BF9131
:10081000AF919F918F917F916F915F914F913F9198
:100820002F910F900FBE0F901F9018950895089567
:10083000B1D0FDDF31D4CBEBD0E034D42097E9F355
:100840009ADCFBCF1F920F920FB60F9211242F93B9
:100850003F938F939F93AF93BF9380915B01909150
:100860005C01A0915D01B0915E0130915A0123E0DD
:10087000230F2D3720F40196A11DB11D05C026E8D8
:10088000230F0296A11DB11D20935A0180935B0195
:1008900090935C01A0935D01B0935E0180915F0134
:1008A00090916001A0916101B09162010196A11D3A
:1008B000B11D80935F0190936001A0936101B0939B
:1008C0006201BF91AF919F918F913F912F910F90B6
:1008D0000FBE0F901F9018953FB7F89480915F015D
:1008E00090916001A0916101B091620126B5A89B31
:1008F00005C02F3F19F00196A11DB11D3FBFBA2FB2
:10090000A92F982F8827820F911DA11DB11DBC0111
:10091000CD0142E0660F771F881F991F4A95D1F7D6
:1009200008958F929F92AF92BF92CF92DF92EF92F3
:10093000FF926B017C01D0DF4B015C01C114D1043B
:10094000E104F104F1F072DFC7DFDC01CB018819AB
:100950009909AA09BB09883E9340A105B10570F326
:1009600021E0C21AD108E108F10888EE880E83E080
:10097000981EA11CB11CC114D104E104F10421F79B
:10098000DDCFFF90EF90DF90CF90BF90AF909F9022
:100990008F900895789484B5826084BD84B5816019
:1009A00084BD85B5826085BD85B5816085BDEEE677
:1009B000F0E0808181608083E1E8F0E01082808156
:1009C00082608083808181608083E0E8F0E08081C4
:1009D00081608083E1EBF0E0808184608083E0EBE4
:1009E000F0E0808181608083EAE7F0E080818460CC
:1009F0008083808182608083808181608083808128
:100A0000806880831092C10008951F93CF93DF9375
:100A1000182FEB0161E07FD0209711F460E004C053
:100A2000CF3FD10531F461E0812FDF91CF911F914C
:100A3000AEC0E12FF0E0EB5AFF4FE491E330F9F064
:100A400048F4E130B9F0E230A1F584B5806284BDAC
:100A5000C8BD34C0E730E9F0E83019F1E43049F5B9
:100A600080918000806280938000D0938B00C0933F
:100A70008A0024C084B5806884BDC7BD1FC0809132
:100A80008000806880938000D0938900C0938800A4
:100A900015C08091B00080688093B000C093B3000F
:100AA0000DC08091B00080628093B000C093B4000C
:100AB00005C0C038D1050CF0B6CFB0CFDF91CF91D3
:100AC0001F910895833081F028F4813099F08230AD
:100AD000A1F008958730A9F08830B9F08430D1F4BE
:100AE000809180008F7D03C0809180008F778093FC
:100AF0008000089584B58F7702C084B58F7D84BD52
:100B000008958091B0008F7703C08091B0008F7DF1
:100B10008093B0000895CF93DF9390E0FC01E759F4
:100B2000FF4F2491FC01E358FF4F8491882361F12A
:100B300090E0880F991FFC01E556FF4FC591D491B5
:100B4000FC01EF56FF4FA591B491611109C09FB709
:100B5000F8948881209582238883EC912E230BC002
:100B6000623061F49FB7F8943881822F8095832397
:100B70008883EC912E2B2C939FBF06C08FB7F894DF
:100B8000E8812E2B28838FBFDF91CF9108951F938B
:100B9000CF93DF93282F30E0F901EB5AFF4F849178
:100BA000F901E759FF4FD491F901E358FF4FC49180
:100BB000CC23C1F0162F811185DFEC2FF0E0EE0F72
:100BC000FF1FEF56FF4FA591B4918FB7F894111105
:100BD00005C09C91ED2FE095E92302C0EC91ED2B2F
:100BE000EC938FBFDF91CF911F91089526E040E8ED
:100BF00055E260E070E080EB90E052CBCF93DF9362
:100C000080EB90E07BDA892B09F446C080EB90E022
:100C10008FDA80937001853681F0209163013091E5
:100C20006401A9014F5F5F4F5093640140936301DA
:100C3000F901EB59FE4F808326C010926401109297
:100C4000630167E870E085E691E00E94F013EC0133
:100C50000E94D3139093760180937501CD2B61F0A0
:100C600067E870E080E090E00E94F0130E94D313E8
:100C700090937801809377018BE0E5E6F1E0DF0166
:100C80001D928A95E9F760917501709176018091C6
:100C900077019091780110C0109272011092710149
:100CA0001092740110927301609171017091720140
:100CB0008091730190917401DF91CF910895EF922B
:100CC000FF920F931F93CF93DF93D82FC62FE42E5D
:100CD00061E08C2F20DF61E08D2F1DDF60E08D2F24
:100CE00056DF60E08C2F53DF07E010E0F12C60E06E
:100CF0008C2F4DDFB701002E02C0759567950A94C1
:100D0000E2F7617077278D2F42DF61E08C2F3FDFA4
:100D100060E08D2F3CDF0150110948F760E08C2F17
:100D2000DF91CF911F910F91FF90EF9030CFCF9235
:100D3000DF92EF92FF920F931F93CF93DF938C017B
:100D40006B0160E080916B0022DF6091690070911F
:100D50006A0040E08091670090916800B0DF609188
:100D6000690070916A0040E080916700909168008E
:100D7000A6DF61E080916B000ADF68EC70E080E044
:100D800090E0CFDDC0E0D0E00D2C000CEE08FF08B5
:100D9000C017D1070CF040C060E080916B00F7DE17
:100DA0006091690070916A004FEF809167009091A7
:100DB000680085DF6091690070916A004FEF809153
:100DC0006700909168007BDF61E080916B00DFDE5F
:100DD000C701B601A6DD60E080916B00D8DE6091AE
:100DE000690070916A0040E080916700909168000E
:100DF00066DF6091690070916A0040E08091670051
:100E0000909168005CDF61E080916B00C0DEC701FB
:100E1000B60187DD2196BCCFDF91CF911F910F9155
:100E2000FF90EF90DF90CF90089561E08091650092
:100E300072DE61E080916B006EDEE9E7F1E081E057
:100E4000808382E0818384E0828388E0838380E101
:100E5000848380E2858380E4868380E887838FEFC4
:100E60008093830164EF71E082E090E060CFCF93E4
:100E7000DF93C5E6D0E061E0888189DE64EF71E050
:100E800080E090E088D760E0888181DE64EF71E0E7
:100E900080E090E0DF91CF917EC7CF93DF93C9E7E9
:100EA000D1E089918093840160E080916B006FDED6
:100EB0006091690070916A0040918401809167009F
:100EC00090916800FCDE61E080916B0060DE6CE276
:100ED00071E080E090E05FD781E0C138D80709F782
:100EE000DF91CF910895D9DFC2CFCF93DF93C5E6CD
:100EF000D0E061E088814BDE6AEF70E080E090E056
:100F00004AD760E0888143DE6AEF70E080E090E0DD
:100F1000DF91CF9140C7CF93DF93CBE6D0E060E085
:100F2000888135DE6091690070916A00409183018B
:100F30008091670090916800C2DE61E08881DF9156
:100F4000CF9125CEE8DFD1CFCF93DF931F92CDB7DE
:100F5000DEB783E5898300E020E030E0A901BE012F
:100F60006F5F7F4F809187019091880108D38981BD
:100F70008D3411F4B8DFEFCF833569F7E3DFEBCFC2
:100F8000CF93DF9300D000D000D0CDB7DEB756D5D9
:100F900069837A838B839C838BE8E82E81E0F82E2B
:100FA0002DDE60938B0170938C0180938D01909363
:100FB0008E01FE82ED828091890190918A010097D5
:100FC00049F000E02AE030E040E050E0BE016B5F15
:100FD0007F4F3FD245E050E060E070E0CE010196E7
:100FE00073D6DECFCF93DF9300D01F92CDB7DEB79D
:100FF00083E58B8313E58DE4F82E93E5E92E00E07D
:101000002AE030E040E050E0BE016F5F7F4F80910A
:10101000890190918A01B3D2811103C0EB82F8D08B
:1010200028C0E981FA8182819381FB82608171818C
:1010300097FD14C077FD0DC08DD0E981FA818081C4
:101040009181892BB1F482819381892B91F4EB8278
:1010500010C071956195710992D00BC091958195E1
:10106000910977FD02C0A5D004C071956195710901
:10107000B5D08B81181771F000E023E030E040E03C
:1010800050E0BE016D5F7F4F809187019091880194
:10109000E0D18B81182FB3CF81E080938F014ED0A8
:1010A000C4DEA4CDAF92BF92CF92DF92EF92FF92B7
:1010B0000F93A12CB12CC12CD12CE12CF12C04E0EC
:1010C00020E030E048EC50E069E870E080EC97E028
:1010D0007CD303E020E030E048EC50E067E970E0CA
:1010E00082EF97E072D301E020E030E048EC50E07E
:1010F00061EA70E084EA97E068D30F91FF90EF9087
:10110000DF90CF90BF90AF9054C440E062E081E0A8
:101110006ED190938A018093890140E061E081E083
:1011200066D1909388018093870140E061E081E07F
:101130005ED19093860180938501089561E089E0F6
:10114000EADC61E08AE0E7DC61E085E0E4DC61E0C4
:1011500086E0E1CCCF93DF93EC01861B970BBC01BB
:1011600089E053DCBE0185E050DC60E070E08AE09D
:101170004CDC60E070E086E0DF91CF9146CC0F93CD
:101180001F93CF93DF93EC018B01BC0189E03DDC21
:10119000BE01601B710B85E038DC60E070E08AE026
:1011A00034DC60E070E086E0DF91CF911F910F9119
:1011B0002CCCCF93DF93EC01861B970BBC018AE00C
:1011C00024DCBE0186E021DC60E070E089E01DDC0B
:1011D00060E070E085E0DF91CF9117CC0F931F9313
:1011E000CF93DF93EC018B01BC018AE00EDCBE01E2
:1011F000601B710B86E009DC60E070E089E005DCD3
:1012000060E070E085E0DF91CF911F910F91FDCB01
:1012100060E089E0BCDC60E08AE0B9DC60E085E0A9
:10122000B6DC60E086E0B3CC1F93CF93DF93EC0194
:10123000142F88A181110BC088819981892B09F015
:1012400041C08A819B8189D71B821A823CC0482F6A
:1012500050E0111115C08C819D810E94F31328A1CB
:101260008C819D81820F911D9D838C832A813B817E
:101270008217930738F1888199819D838C8322C0DE
:101280008E819F810E94F31388A190E091958195B2
:1012900091092E813F81280F391F3F832E8348817A
:1012A00059812417350730F42A813B81820F931F1F
:1012B0009F838E83123031F48E8D882319F08E8DAA
:1012C00081508E8F80E09E8D9F5F9E8FDF91CF91AA
:1012D0001F910895FC01CB0140A14423A1F050E0EF
:1012E00026813781240F351F3783268362817381DE
:1012F0002617370720F020813181378326836681C6
:1013000077810C94F31308950F931F93CF93DF937A
:10131000EC010FB6F8940F928C010D5E1F4F9AA14D
:1013200019165CF48B89882341F0C80112D681110B
:10133000B1D69AA191509AA3F2CF8FEF8AA30F90C2
:101340000FBE0FB6F8940F928E01085F1F4F99A140
:1013500019165CF48885882341F0C801FAD58111FB
:1013600099D699A1915099A3F2CF8FEF89A30F90AD
:101370000FBEDF91CF911F910F910895CF93DF930F
:10138000EC010FB6F8940F92288139819F8D48A106
:10139000949FC0011124F901E80FF91FFB83EA8330
:1013A0001E8E3D832C83841B9109820F931F9F8384
:1013B0008E838FEF89A38AA361110BC08885882350
:1013C00081F0CE010896C5D5813059F40E945A1299
:1013D00008C0CE0108960E940E13CE0143960E94CB
:1013E0000E130F900FBE81E0DF91CF910895EF9221
:1013F000FF921F93CF93DF931F92CDB7DEB7182FC5
:10140000662331F0869F90011124C901019602C024
:1014100080E090E083966983ECD67C016981009737
:1014200081F0611104C0FC019183808304C0839624
:10143000F70191838083F701178F60A361E0C701F3
:101440009DDFC7010F90DF91CF911F91FF90EF902B
:101450000895AF92BF92CF92DF92EF92FF920F93D7
:10146000CF93DF93CDB7DEB729970FB6F894DEBFE1
:101470000FBECDBF7C016B012E833F834887598708
:1014800090E0570188E0A80EB11C0FB6F8940F92B7
:10149000F701268D878D281710F00230A9F4402F10
:1014A000B601C701C1DEF7019389992339F0C7015D
:1014B00043964FD5813021F4FDD702C08111FCCF76
:1014C0000F900FBE81E04BC04E815F8168857985AA
:1014D000452B462B472B19F40F900FBE3FC091119F
:1014E00003C0CE01019672D50F900FBEA1D20FB6E8
:1014F000F8940F92F70181A18F3F09F411A2F7012F
:1015000082A18F3F09F412A20F900FBEBE016A5F45
:101510007F4FCE0101966BD581111DC00FB6F89497
:101520000F92F701968D0F900FBE878D98130FC005
:101530004E815F8168857985C501E4D4C701E4DE09
:1015400058D3882311F091E0A0CFB4D7FCCFC701C6
:10155000DBDE4FD3F8CFC701D7DE4BD380E029962F
:101560000FB6F894DEBF0FBECDBFDF91CF910F91C4
:10157000FF90EF90DF90CF90BF90AF900895AF9223
:10158000BF92CF92DF92EF92FF920F93CF93DF93B0
:10159000CDB7DEB729970FB6F894DEBF0FBECDBF2B
:1015A0007C016B012E833F834887598790E0570168
:1015B00083E1A80EB11C0FB6F8940F92F701868D47
:1015C000882361F1A680B780B601C70183DEF701E9
:1015D000011116C0868D8150868F80819181892B63
:1015E00021F4F5D5F70193838283F7018085882361
:1015F00089F0C7010896ADD4813061F45BD70AC089
:10160000B782A6828389882329F0C7014396A1D493
:101610008111F4CF0F900FBE81E056C04E815F81E3
:1016200068857985452B462B472B19F40F900FBE03
:101630004AC0911103C0CE010196C8D40F900FBECD
:10164000F7D10FB6F8940F92F70181A18F3F09F4FB
:1016500011A2F70182A18F3F09F412A20F900FBED1
:10166000BE016A5F7F4FCE010196C1D4811128C0AF
:101670000FB6F8940F92F701868D0F900FBE81116F
:101680001BC080819181892B41F40FB6F8940F9291
:101690008281938103D50F900FBE4E815F81688553
:1016A0007985C5012FD4C7012FDEA3D2882311F07D
:1016B00091E081CFFFD6FCCFC70126DE9AD2F8CFCA
:1016C000C70122DE96D280E029960FB6F894DEBFDD
:1016D0000FBECDBFDF91CF910F91FF90EF90DF90C4
:1016E000CF90BF90AF900895E091B901F091BA0109
:1016F0008081811104C08FEF9FEFDC010EC0E0916B
:10170000B901F091BA010780F085E02D0084F185E0
:10171000E02D82819381A481B58180939101909382
:101720009201A0939301B09394010895CF92DF9218
:10173000EF92FF92E0913F02F09140026283738347
:1017400084839583C0909B01D0909C01E0909D0183
:10175000F0909E016C157D058E059F0578F46091D3
:101760003F02709140028091B7019091B8016E5F85
:101770007F4FFF90EF90DF90CF9086C76B017C0189
:1017800060913F02709140028091B9019091BA013D
:101790006E5F7F4F79D78091910190919201A091D6
:1017A0009301B0919401C816D906EA06FB0640F4ED
:1017B000C0929101D0929201E0929301F092940133
:1017C000FF90EF90DF90CF9008955F926F927F929D
:1017D0008F929F92AF92BF92CF92DF92EF92FF9241
:1017E0000F931F93CF93DF934C01162F572E5A015F
:1017F0003901C114D10431F4CA01FBD46C01892B25
:1018000009F4C6C08CE290E0F4D4EC01009779F0C2
:10181000DC8ECB8E21E0A21AB108AC0CBD1CBC0141
:10182000635E7F4FE12FF52DCF01089606C0C601FC
:1018300070D5AEC0E817F90749F09F014191DB016F
:101840004D93BD01D9012C912111F4CF1CA2102F71
:101850000A3008F019E01A8F1DA31EA26E01B2E033
:10186000CB0ED11CC601EBD6CE010E96E8D6DB8797
:10187000CA878AE090E0A0E0B0E0811B9109A1094D
:10188000B1098E879F87A88BB98BDF8BCE8B1FA268
:1018900018A619A61AA61BA6A301B401C50163D5F3
:1018A00099838883E114F10419F0F701D183C0838F
:1018B0000FB6F8940F9280919F018F5F80939F01E4
:1018C00080913F0290914002892B79F5D09340029C
:1018D000C0933F0280919F018130B1F581EDE82EE8
:1018E00081E0F82EC7019AD6FBE0EF0EF11C2FE342
:1018F000E21622E0F206B1F786EC91E08FD68BEB90
:1019000091E08CD68CEA91E089D681EA91E086D686
:1019100086EC91E09093BA018093B9018BEB91E052
:101920009093B8018093B7010FC080919901811104
:101930000BC0E0913F02F0914002828D081720F029
:10194000D0934002C0933F02809195018F5F8093B6
:1019500095018A8D90919A01981710F480939A01BD
:10196000ABE08A9FC0011124B6018F529E4F6BD607
:101970000F900FBE80919901882341F0E0913F02C2
:10198000F0914002828D801708F494D581E001C067
:101990008FEFDF91CF911F910F91FF90EF90DF902C
:1019A000CF90BF90AF909F908F907F906F905F90FF
:1019B0000895AF92BF92CF92DF92EF92FF920F9372
:1019C000A12CB12CC12CD12CE12CF12C00E020E079
:1019D00030E045E550E069EA70E088E09FE0F5DE40
:1019E0008130F1F4F8944FEF5FEFBA014093910129
:1019F00050939201609393017093940180939901A5
:101A000010929B0110929C0110929D0110929E01D8
:101A10000F91FF90EF90DF90CF90BF90AF900FC5E8
:101A20000F91FF90EF90DF90CF90BF90AF9008950F
:101A3000809190018F5F8093900108950FB6F89484
:101A40000F9260919B0170919C0180919D019091FA
:101A50009E010F900FBE08958F929F92AF92BF92FA
:101A6000EF92FF920F931F93CF93DF93809190019A
:101A70008111A9C080919B0190919C01A0919D0131
:101A8000B0919E010196A11DB11D80939B01909381
:101A90009C01A0939D01B0939E0180909B0190902A
:101AA0009C01A0909D01B0909E0181149104A1041D
:101AB000B104B1F48091B9019091BA012091B701BC
:101AC0003091B8013093BA012093B9019093B801D5
:101AD0008093B701809196018F5F8093960104DE19
:101AE0008091910190919201A0919301B091940104
:101AF000C0E088169906AA06BB0608F454C0DBE0CD
:101B0000E091B901F091BA018081811104C08FEF99
:101B10009FEFDC0113C0E091B901F091BA01078099
:101B2000F085E02D00851185F80182819381A481E3
:101B3000B58188169906AA06BB0648F480939101E0
:101B400090939201A0939301B09394012CC07801DB
:101B5000F2E0EF0EF11CC701DBD5D80158968D914C
:101B60009C915997892B19F0C8010E96D1D5F8018F
:101B7000928D80919A01891710F490939A01D99FC0
:101B8000C0011124B7018F529E4F5DD5E0913F02F5
:101B9000F0914002D8015A969C91828D981708F4D2
:101BA000AFCFC1E0ADCFE0913F02F0914002E28DB6
:101BB000BBE0EB9FF0011124EF52FE4F8081823099
:101BC00040F0C1E006C0809198018F5F809398013A
:101BD000C0E0809197018111C1E08C2FDF91CF91FE
:101BE0001F910F91FF90EF90BF90AF909F908F90BB
:101BF0000895EF92FF920F931F93CF93DF930FB649
:101C0000F8940F928091900181508093900180917F
:101C10009001882311F080E04EC080919F018823BD
:101C2000D1F38BE0F82EEE24E3948091AC0188236D
:101C300039F1E091B301F091B401C085D185CE01B5
:101C40000E9666D58E010E5F1F4FC80161D59A8D25
:101C500080919A01891710F490939A01F99EC0011E
:101C60001124B8018F529E4FEED4E0913F02F091C3
:101C700040029A8D828D9817C0F2E0929701D5CFDD
:101C800080919801811108C080919701813009F0FD
:101C9000C2CF10D481E00FC0C1E0809198018823A9
:101CA00099F3DADE8111C0939701809198018150F8
:101CB00080939801F2CF0F900FBEDF91CF911F91CB
:101CC0000F91FF90EF900895AF92BF92CF92DF9265
:101CD000EF92FF920F931F93CF93DF9300D000D02A
:101CE000CDB7DEB75C0149835A836B837C83A0DE6A
:101CF00000919B0110919C0120919D0130919E01CA
:101D0000F50180819181A281B38149815A816B81E2
:101D10007C816C017D01C40ED51EE61EF71E0817DE
:101D200019072A073B0730F4C816D906EA06FB064E
:101D300060F405C0C816D906EA06FB0640F091E03B
:101D40000C151D052E053F0518F090E001C091E02F
:101D5000F501C082D182E282F382992349F0809119
:101D60003F02909140020296D3D4C701B601DEDC57
:101D700040DF811101C09ED30F900F900F900F9004
:101D8000DF91CF911F910F91FF90EF90DF90CF9057
:101D9000BF90AF900895CF92DF92EF92FF92CF93D2
:101DA000DF9300D000D0CDB7DEB761157105810596
:101DB000910511F47FD321C069837A838B839C833F
:101DC00037DEC0909B01D0909C01E0909D01F09087
:101DD0009E0169817A818B819C81C60ED71EE81E87
:101DE000F91E80913F0290914002029691D4C70162
:101DF000B6019CDCFEDE8823E9F20F900F900F9075
:101E00000F90DF91CF91FF90EF90DF90CF900895EA
:101E10008091A001882321F10BDEC091A101E9DEB0
:101E2000CC23B1F30FB6F8940F92E091A801F09192
:101E3000A901C085D185CE0102966AD480919F0107
:101E4000815080939F018091A00181508093A001D7
:101E50000F900FBE8B8D9C8D5CD2CE015AD2D8CF05
:101E60008091D1018230A0F225D3D2CF8091900110
:101E7000882321F081E080939701089510929701C3
:101E80009BE0E0919A019E9FF0011124EF52FE4FDA
:101E90008081811106C080919A01815080939A01BE
:101EA000F0CF80919A0190E04BE0489F9001499FCC
:101EB000300D1124F901EF52FE4FA181B281149629
:101EC0000D90BC91A02DB283A1832C523E4FA2173E
:101ED000B30731F414962D913C91159732832183E9
:101EE0002BE0289FF001299FF00D1124EF52FE4FA7
:101EF0000180F281E02D808591859093400280934E
:101F00003F020895CF92DF92EF92FF926A017B0128
:101F100020913F0230914002B901625F7F4FB4D3FC
:101F200080913F02909140020296F2D380919B01F2
:101F300090919C01A0919D01B0919E01BC01CD01A9
:101F40006C0D7D1D8E1D9F1DFF90EF90DF90CF903B
:101F5000EDCB0F931F93CF93DF93DC011796ED9199
:101F6000FC911897C085D1858E01025F1F4FC80173
:101F7000CFD380919001811113C00C501109C80179
:101F8000C7D39A8D80919A01891710F490939A0182
:101F9000BBE09B9FC0011124B8018F529E4F03C02C
:101FA000B8018CEA91E04FD3E0913F02F0914002FA
:101FB0009A8D828D891720F481E08093970101C06A
:101FC00080E0DF91CF911F910F91089520919601AC
:101FD000FC01208340919B0150919C0160919D01E7
:101FE00070919E01418352836383748308958F921D
:101FF0009F92AF92BF92CF92DF92EF92FF920F9398
:102000001F93FB010FB6F8940F92C0909B01D090E4
:102010009C01E0909D01F0909E0130919601DC01C1
:102020002C9111964D915D916D917C911497321781
:1020300029F0C416D506E606F706F0F400811181F2
:102040002281338146015701841A950AA60AB70AEC
:1020500080169106A206B30678F44C195D096E0944
:102060007F09400F511F621F731F4083518362839A
:102070007383ACDF80E001C081E00F900FBE1F9141
:102080000F91FF90EF90DF90CF90BF90AF909F9017
:102090008F90089581E08093970108950F931F9387
:1020A000CF93DF93FC01892B09F452C0828DA0915C
:1020B0003F02B09140025A969C91891708F048C09F
:1020C000468557856089718977FD12C0A0913F02CE
:1020D000B09140025A969C914AE050E060E070E076
:1020E000491B51096109710946875787608B718BBC
:1020F0002BE0829FC00111248F529E4F248535858D
:1021000028173907F1F48F01EF012296CE0100D391
:10211000E0913F02F0914002928DF801928F809100
:102120009A01891710F490939A01FBE09F9FC001D8
:102130001124BE018F529E4FDF91CF911F910F91BD
:1021400082C2A0913F02B09140025A968C91828F38
:10215000DF91CF911F910F9108950F931F93CF930C
:10216000DF93FC01892B11F480E02CC086A1815003
:1021700086A3228D95A12917B9F38111F5CFEF011F
:102180008F010E5F1F4FC801C3D29DA19A8F4AE0F5
:1021900050E060E070E0491B5109610971094E8708
:1021A0005F87688B798B80919A01891710F49093DF
:1021B0009A012BE0929FC0011124B8018F529E4FCB
:1021C00042D281E0DF91CF911F910F9108958091CC
:1021D0003F0290914002892B39F0E0913F02F0914B
:1021E000400286A18F5F86A380913F0290914002BA
:1021F00008950F931F93CF93DF93EC0119DC809127
:102200004102811121C08BE492E0909347028093B8
:10221000460210924902109248028BED95E090938D
:10222000450280934402109243021092420290931E
:102230004E0280934D0282E492E090934C02809390
:102240004B0281E080934102209709F02496CE0151
:1022500001978A3D954008F053C0E0914602F09105
:102260004702A6E4B2E0828193818C179D0728F093
:1022700022E0E234F20749F443C020813181211584
:102280003105B1F3DF01F901EECF0D911C911197EA
:102290000C5F1F4F208131812D933C938C1B9D0B34
:1022A0008930910500F1DF01AC0FBD1F13969C939F
:1022B0008E931297D383C28312962D913C911397DC
:1022C00066E472E0EB0188819981EC014A815B81CF
:1022D0004217530710F4BC01F5CF11969C938E93CF
:1022E000EB01B983A88380916D0090916E002281EB
:1022F0003381821B930B90936E0080936D0002C01C
:1023000000E010E076DCC801DF91CF911F910F91C2
:102310000895CF93DF93009719F1EC01249788DBA0
:102320008A819B81E6E4F2E0A081B18112962D9131
:102330003C9113972817390710F4FD01F5CFB983A5
:10234000A883D183C08320916D0030916E00820FED
:10235000931F90936E0080936D00DF91CF9149CCD5
:10236000DF91CF91089531E1FC013083319722E272
:1023700020833197A3E3A0833197608331977083E3
:1023800031971082319760E86083319710823197DE
:1023900062E06083319763E06083319764E060833B
:1023A000319765E06083319766E06083319767E03D
:1023B0006083319768E06083319769E0608331978B
:1023C00060E1608331973083319732E13083319718
:1023D00033E13083319734E13083319735E1308315
:1023E000319736E13083319737E13083319738E1E7
:1023F0003083319739E13083319730E23083319740
:1024000031E2308331972083319723E22083319763
:10241000408331975083319726E22083319727E21A
:102420002083319728E22083319729E22083319756
:1024300020E32083319721E320838697089589E064
:102440008093890083EC809388008BE080938100E7
:10245000EFE6F0E0808182608083A0913F02B0913E
:102460004002CD91CDBFDD91DEBFFF91EF91DF91B5
:10247000CF91BF91AF919F918F917F916F915F911C
:102480004F913F912F911F910F91FF90EF90DF900F
:10249000CF90BF90AF909F908F907F906F905F9004
:1024A0004F903F902F901F900F900FBE0F90089568
:1024B00081E008950F920FB6F8940F921F921124A5
:1024C0002F923F924F925F926F927F928F929F9244
:1024D000AF92BF92CF92DF92EF92FF920F931F9332
:1024E0002F933F934F935F936F937F938F939F931C
:1024F000AF93BF93CF93DF93EF93FF93A0913F02EE
:10250000B09140020DB60D920EB60D92AFDCA091C7
:102510003F02B0914002CD91CDBFDD91DEBFFF9172
:10252000EF91DF91CF91BF91AF919F918F917F916B
:102530006F915F914F913F912F911F910F91FF905C
:10254000EF90DF90CF90BF90AF909F908F907F9053
:102550006F905F904F903F902F901F900F900FBE05
:102560000F9008950F920FB6F8940F921F921124B6
:102570002F923F924F925F926F927F928F929F9293
:10258000AF92BF92CF92DF92EF92FF920F931F9381
:102590002F933F934F935F936F937F938F939F936B
:1025A000AF93BF93CF93DF93EF93FF93A0913F023D
:1025B000B09140020DB60D920EB60D924DDA81111A
:1025C00055DCA0913F02B0914002CD91CDBFDD918D
:1025D000DEBFFF91EF91DF91CF91BF91AF919F91BE
:1025E0008F917F916F915F914F913F912F911F91AB
:1025F0000F91FF90EF90DF90CF90BF90AF909F90A2
:102600008F907F906F905F904F903F902F901F9092
:102610000F900FBE0F900895A5DF1895FC0103964B
:10262000928381834FEF5FEFBA01438354836583C5
:102630007683908787839287818710820895FC0133
:10264000138612860895CF93DF939C01FB01DC0172
:102650001196CD91DC911297D583C4838E819F8191
:10266000978386838E819F81DC0115967C936E9380
:1026700014977F836E8333872287F90180818F5F70
:102680008083DF91CF910895EF92FF920F931F9374
:10269000CF93DF937C01FB01408151816281738183
:1026A0004F3F8FEF58076807780721F4E701A985A6
:1026B000BA8512C0D701139614968D919C911597E7
:1026C000EC01088119812A813B814017510762077B
:1026D000730710F0DC01F0CF14968D919C91159743
:1026E00095838483EC01FF83EE83B783A6831596DD
:1026F000FC93EE931497F386E286F70180818F5F57
:102700008083DF91CF911F910F91FF90EF900895FB
:10271000CF93DF93FC01A285B385848195812681C7
:102720003781EC013F832E83C681D7819D838C83C3
:1027300011968D919C9112978E179F0721F41296F6
:10274000DC93CE931197138612868C9181508C93D3
:10275000DF91CF910895A1E21A2EAA1BBB1BFD01A8
:102760000DC0AA1FBB1FEE1FFF1FA217B307E40770
:10277000F50720F0A21BB30BE40BF50B661F771FC8
:10278000881F991F1A9469F76095709580959095A8
:102790009B01AC01BD01CF010895EE0FFF1F059015
:1027A000F491E02D0994FC0188279927E894219160
:1027B0002032E9F3293010F02E30C8F32B3239F0F3
:1027C0002D3231F4689403C03ED0820F911D2191C7
:1027D00020532A30C8F31EF4909581959F4F089599
:1027E0004EEA50E009C0FB01DC0102C001900D92ED
:1027F00041505040D8F70895FA01A191B081009757
:1028000019F41097E1F0CD01DC01CD010D9000200D
:1028100011F4C00113C0FB012191222319F02015EE
:10282000D9F7F3CFFB012191201519F41E921196CF
:1028300006C02223C1F70D900020A1F7D001FA01B4
:10284000A193B08308957AE0979F902D879F802D64
:0A285000910D11240895F894FFCFB4
:10285A00FFC703C70307000D000C000800DB0500D3
:10286A000000000A018C02AC00E9007E0098008A90
:10287A000000000000420223005461736B426C7531
:10288A0065746F6F7468005461736B4D6F746F7207
:0E289A00005461736B4C65640049444C45006A
:00000001FF
