:100000005FC00000CFC30000F4C3000080C0000048
:100010007EC000007CC000007AC0000067C3000002
:1000200076C0000074C0000072C000000C9416136B
:100030006EC000006CC000006AC0000068C0000014
:100040000BC4000064C000009AC10000CAC10000D7
:100050005EC000005CC000005AC0000058C0000034
:1000600056C0000054C00000020000000800020159
:10007000000003040700000000000000000102046B
:10008000081020408001020408102001020408101A
:100090002004040404040404040202020202020311
:1000A000030303030300000000250028002B0000C9
:1000B000000000240027002A00001F028B028F0886
:1000C00011241FBECFEFD8E0DEBFCDBF11E0A0E00E
:1000D000B1E0EEE6F8E202C005900D92AE34B10751
:1000E000D9F728E0AEE4B1E001C01D92A63CB2070A
:1000F000E1F710E0C0E6D0E004C02197FE010E94C5
:10010000D713CD35D107C9F79DD30C94351478CFCB
:10011000FC01918D228D892F90E0805C9F4F821B86
:1001200091098F7399270895FC01918D828D9817FD
:1001300031F0828DE80FF11D858D90E008958FEFED
:100140009FEF0895FC01918D828D981761F0828D4B
:10015000DF01A80FB11D5D968C91928D9F5F9F73FB
:10016000928F90E008958FEF9FEF0895FC01538DDB
:10017000448D252F30E0842F90E0821B930B541781
:1001800010F0CF9608950197089586E192E0892BAB
:1001900041F080E090E0892B21F048D181110C944E
:1001A00000000895FC01848DDF01A80FB11DA35A42
:1001B000BF4F2C91848D90E001968F739927848F87
:1001C000A689B7892C93A089B1898C9180648C937E
:1001D000938D848D981306C00288F389E02D808169
:1001E0008F7D80830895CF93DF93EC01888D8823E2
:1001F000C1F0EA89FB89808185FD05C0A889B9899C
:100200008C9186FD0EC00FB607FCF5CF808185FF6F
:10021000F2CFA889B9898C9185FFEDCFCE01C2DFDD
:10022000E8CFDF91CF910895EF92FF920F931F9344
:10023000CF93DF93EC0181E0888F9B8D8C8D981399
:1002400005C0E889F989808185FD23C0F62E0B8DD4
:1002500010E00F5F1F4F0F731127E02E8C8DE812F7
:100260000BC00FB607FCFACFE889F989808185FFBA
:10027000F5CFCE0197DFF2CF8B8DFE01E80FF11D98
:10028000E35AFF4FF0820B8FEA89FB8980818062FD
:1002900007C0EE89FF896083E889F98980818064DD
:1002A000808381E090E0DF91CF911F910F91FF90CB
:1002B000EF900895CF92DF92EF92FF921F93CF932A
:1002C000DF93EC016A017B01122FE889F98982E052
:1002D00080834115514E61057105B1F060E079E010
:1002E0008DE390E0A70196010E94B513DA01C901E0
:1002F0000197A109B109B695A79597958795AC0186
:10030000411580E15807A8F0E889F989108260E872
:1003100074E88EE190E0A70196010E94B513BA013E
:10032000A901415051096109710976956795579561
:100330004795EC85FD855083EE85FF854083188EBB
:10034000EC89FD891083EA89FB8980818061808343
:10035000EA89FB89808188608083EA89FB898081C2
:1003600080688083EA89FB8980818F7D8083DF912B
:10037000CF911F91FF90EF90DF90CF9008951F9243
:100380000F920FB60F9211242F938F939F93EF9399
:10039000FF93E0916001F09161018081E09166013D
:1003A000F091670182FD12C09081809169018F5F99
:1003B0008F7320916A01821751F0E0916901F0E09A
:1003C000E05BFE4F958F8093690101C08081FF91B2
:1003D000EF919F918F912F910F900FBE0F901F90D3
:1003E00018951F920F920FB60F9211242F933F93DF
:1003F0004F935F936F937F938F939F93AF93BF932D
:10040000EF93FF9380E591E0CDDEFF91EF91BF91F7
:10041000AF919F918F917F916F915F914F913F919C
:100420002F910F900FBE0F901F90189580E591E0CF
:100430006FDE21E0892B09F420E0822F0895E0E5AA
:10044000F1E01382128288EE93E0A0E0B0E08483B2
:100450009583A683B78383E191E09183808385ECC4
:1004600090E09587848784EC90E09787868780EC7E
:1004700090E0918B808B81EC90E0938B828B82EC6F
:1004800090E0958B848B86EC90E0978B868B118E19
:10049000128E138E148E08958F929F92AF92BF92F8
:1004A000CF92DF92EF92FF920F931F93CF93DF9340
:1004B0007C018B016C0182E0C80ED11C4701E5E094
:1004C0008E0E911CC0E0D0E0F60161916F014AE010
:1004D00050E0C801D1D05C016EE2C80167D08A0D3E
:1004E0009B1DC80FD91FC814D90471F74AE050E00A
:1004F000F7016581C801C0D08C0F9D1FDF91CF919E
:100500001F910F91FF90EF90DF90CF90BF90AF9031
:100510009F908F900895EDEEF1E085E291E0918358
:10052000808312821382148215820895CF92DF9203
:10053000EF92FF920F931F93CF93DF936C017A0199
:100540008B01C0E0D0E0CE15DF0589F0D8016D91B8
:100550008D01D601ED91FC910190F081E02DC60155
:100560000995892B11F47E0102C02196ECCFC701B9
:10057000DF91CF911F910F91FF90EF90DF90CF907F
:1005800008956115710579F0FB0101900020E9F7EC
:100590003197AF01461B570BDC01ED91FC910280B6
:1005A000F381E02D099480E090E00895DC01ED9165
:1005B000FC910190F081E02D09948F929F92AF926F
:1005C000BF92CF92DF92EF92FF920F931F93CF9340
:1005D000DF93CDB7DEB7A1970FB6F894DEBF0FBE9D
:1005E000CDBF7C01D42EC52EDB0119A2223008F428
:1005F0002AE08E010F5D1F4F822E912CA12CB12C71
:100600006D2D7C2DCD01A50194010E94B513D22E34
:10061000C32EDA01015011096A3071058105910577
:1006200010F4605D01C0695CF8016083232B242B0A
:10063000252B31F7B801C701A4DFA1960FB6F894B6
:10064000DEBF0FBECDBFDF91CF911F910F91FF9005
:10065000EF90DF90CF90BF90AF909F908F900895D4
:100660002115310541F4DC01ED91FC910190F081FF
:10067000E02D642F0994A1CF9A01462F50E060E04D
:1006800070E0EECF813039F018F0823051F00895EB
:1006900010926E00089580916F008D7F80936F009F
:1006A0000895809170008D7F8093700081E0809329
:1006B000B0008091B100887F84608093B100109277
:1006C000B3000895CF93C82F809100018C1307C009
:1006D000E8E6F0E0E4918FEF8093000101C0EFEFD6
:1006E0008E2FD0DF60E08C2FCF915BC21F920F92D4
:1006F0000FB60F9211242F933F934F935F936F93F5
:100700007F938F939F93AF93BF93EF93FF938091CA
:10071000F6019091F701A091F801B091F901892BB0
:100720008A2B8B2B51F18091F301E091F401F09130
:10073000F5019081892780838091F6019091F701DE
:10074000A091F801B091F901181619061A061B06B6
:10075000BCF48091F6019091F701A091F801B0915D
:10076000F9010197A109B1098093F6019093F7016E
:10077000A093F801B093F90103C080910001A2DFBA
:10078000FF91EF91BF91AF919F918F917F916F9169
:100790005F914F913F912F910F900FBE0F901F903F
:1007A000189508951F920F920FB60F9211242F9350
:1007B0003F934F935F936F937F938F939F93AF93E9
:1007C000BF93EF93FF93E0910101F091020109952E
:1007D000FF91EF91BF91AF919F918F917F916F9119
:1007E0005F914F913F912F910F900FBE0F901F90EF
:1007F00018951F920F920FB60F9211242F933F93CB
:100800004F935F936F937F938F939F93AF93BF9318
:10081000EF93FF93E0910301F09104010995FF919B
:10082000EF91BF91AF919F918F917F916F915F9168
:100830004F913F912F910F900FBE0F901F901895E1
:1008400008950895B1D0FDDF31D4C5ECD0E034D4A3
:100850002097E9F39ADCFBCF1F920F920FB60F920D
:1008600011242F933F938F939F93AF93BF938091C6
:10087000FB019091FC01A091FD01B091FE0130912E
:10088000FA0123E0230F2D3720F40196A11DB11D9D
:1008900005C026E8230F0296A11DB11D2093FA0181
:1008A0008093FB019093FC01A093FD01B093FE01A6
:1008B0008091FF0190910002A0910102B09102028B
:1008C0000196A11DB11D8093FF0190930002A0939A
:1008D0000102B0930202BF91AF919F918F913F911E
:1008E0002F910F900FBE0F901F9018953FB7F8945F
:1008F0008091FF0190910002A0910102B09102024B
:1009000026B5A89B05C02F3F19F00196A11DB11D6A
:100910003FBFBA2FA92F982F8827820F911DA11DA5
:10092000B11DBC01CD0142E0660F771F881F991FE2
:100930004A95D1F708958F929F92AF92BF92CF922E
:10094000DF92EF92FF926B017C01D0DF4B015C01E3
:10095000C114D104E104F104F1F072DFC7DFDC015E
:10096000CB0188199909AA09BB09883E9340A105C2
:10097000B10570F321E0C21AD108E108F10888EE50
:10098000880E83E0981EA11CB11CC114D104E1049F
:10099000F10421F7DDCFFF90EF90DF90CF90BF9073
:1009A000AF909F908F900895789484B5826084BDB5
:1009B00084B5816084BD85B5826085BD85B5816063
:1009C00085BDEEE6F0E0808181608083E1E8F0E0C3
:1009D0001082808182608083808181608083E0E8F2
:1009E000F0E0808181608083E1EBF0E080818460D1
:1009F0008083E0EBF0E0808181608083EAE7F0E0D3
:100A00008081846080838081826080838081816036
:100A100080838081806880831092C10008951F9335
:100A2000CF93DF93182FEB0161E07FD0209711F473
:100A300060E004C0CF3FD10531F461E0812FDF9148
:100A4000CF911F91AEC0E12FF0E0E759FF4FE49145
:100A5000E330F9F048F4E130B9F0E230A1F584B5C3
:100A6000806284BDC8BD34C0E730E9F0E83019F1D8
:100A7000E43049F580918000806280938000D093BB
:100A80008B00C0938A0024C084B5806884BDC7BD34
:100A90001FC080918000806880938000D09389007F
:100AA000C093880015C08091B00080688093B0002A
:100AB000C093B3000DC08091B00080628093B000FD
:100AC000C093B40005C0C038D1050CF0B6CFB0CF8C
:100AD000DF91CF911F910895833081F028F4813008
:100AE00099F08230A1F008958730A9F08830B9F0EC
:100AF0008430D1F4809180008F7D03C0809180008C
:100B00008F7780938000089584B58F7702C084B575
:100B10008F7D84BD08958091B0008F7703C0809150
:100B2000B0008F7D8093B0000895CF93DF9390E065
:100B3000FC01E358FF4F2491FC01EF56FF4F8491D5
:100B4000882361F190E0880F991FFC01E155FF4F68
:100B5000C591D491FC01EB55FF4FA591B491611162
:100B600009C09FB7F8948881209582238883EC91EF
:100B70002E230BC0623061F49FB7F8943881822F26
:100B8000809583238883EC912E2B2C939FBF06C0E6
:100B90008FB7F894E8812E2B28838FBFDF91CF91F8
:100BA00008951F93CF93DF93282F30E0F901E75981
:100BB000FF4F8491F901E358FF4FD491F901EF56AB
:100BC000FF4FC491CC23C1F0162F811185DFEC2F8C
:100BD000F0E0EE0FFF1FEB55FF4FA591B4918FB7DB
:100BE000F894111105C09C91ED2FE095E92302C006
:100BF000EC91ED2BEC938FBFDF91CF911F91089576
:100C000026E040E855E260E070E080E591E052CBFC
:100C1000CF93DF9380E591E07BDA892B09F446C01E
:100C200080E591E08FDA80931002853681F0209183
:100C3000030230910402A9014F5F5F4F50930402F9
:100C400040930302F901EB5FFD4F808326C01092B1
:100C500004021092030267E271E085E092E00E94D4
:100C6000FA13EC010E94DD13909316028093150293
:100C7000CD2B61F067E271E080E090E00E94FA1312
:100C80000E94DD1390931802809317028BE0E5E039
:100C9000F2E0DF011D928A95E9F7609115027091EB
:100CA0001602809117029091180210C01092120241
:100CB000109211021092140210921302609111020C
:100CC000709112028091130290911402DF91CF91E2
:100CD0000895EF92FF920F931F93CF93DF93D82F36
:100CE000C62FE42E61E08C2F20DF61E08D2F1DDF09
:100CF00060E08D2F56DF60E08C2F53DF07E010E0BF
:100D0000F12C60E08C2F4DDFB701002E02C07595ED
:100D100067950A94E2F7617077278D2F42DF61E0D3
:100D20008C2F3FDF60E08D2F3CDF0150110948F729
:100D300060E08C2FDF91CF911F910F91FF90EF908A
:100D400030CFCF92DF92EF92FF920F931F93CF930A
:100D5000DF938C016B0160E080910B0122DF6091D9
:100D6000090170910A0140E080910701909108010A
:100D7000B0DF6091090170910A0140E080910701A4
:100D800090910801A6DF61E080910B010ADF68EC19
:100D900070E080E090E0CFDDC0E0D0E00D2C000CF2
:100DA000EE08FF08C017D1070CF040C060E080914A
:100DB0000B01F7DE6091090170910A014FEF8091FC
:100DC00007019091080185DF6091090170910A0186
:100DD0004FEF80910701909108017BDF61E08091E6
:100DE0000B01DFDEC701B601A6DD60E080910B01DB
:100DF000D8DE6091090170910A0140E080910701FD
:100E00009091080166DF6091090170910A0140E04C
:100E100080910701909108015CDF61E080910B01F6
:100E2000C0DEC701B60187DD2196BCCFDF91CF912F
:100E30001F910F91FF90EF90DF90CF90089561E0A8
:100E40008091050172DE61E080910B016EDEE9E1C7
:100E5000F2E081E0808382E0818384E0828388E025
:100E6000838380E1848380E2858380E4868380E8D5
:100E700087838FEF8093230264EF71E082E090E03C
:100E800060CFCF93DF93C5E0D1E061E0888189DE58
:100E900064EF71E080E090E088D760E0888181DED7
:100EA00064EF71E080E090E0DF91CF917EC7CF9357
:100EB000DF93C9E1D2E089918093240260E08091C0
:100EC0000B016FDE6091090170910A0140912402CB
:100ED0008091070190910801FCDE61E080910B0197
:100EE00060DE6CE271E080E090E05FD782E0C132CA
:100EF000D80709F7DF91CF910895D9DFC2CFCF93FB
:100F0000DF93C5E0D1E061E088814BDE6AEF70E0FD
:100F100080E090E04AD760E0888143DE6AEF70E0CD
:100F200080E090E0DF91CF9140C7CF93DF93CBE09B
:100F3000D1E060E0888135DE6091090170910A019D
:100F4000409123028091070190910801C2DE61E087
:100F50008881DF91CF9125CEE8DFD1CFCF93DF938A
:100F60001F92CDB7DEB783E5898300E020E030E053
:100F7000A901BE016F5F7F4F8091270290912802E7
:100F800008D389818D3411F4B8DFEFCF833569F749
:100F9000E3DFEBCFCF93DF9300D000D000D0CDB70D
:100FA000DEB756D569837A838B839C838BE2E82EE8
:100FB00082E0F82E2DDE60932B0270932C0280933A
:100FC0002D0290932E02FE82ED8280912902909153
:100FD0002A02009749F000E02AE030E040E050E0CB
:100FE000BE016B5F7F4F3FD245E050E060E070E0B4
:100FF000CE01019673D6DECFCF93DF9300D01F9240
:10100000CDB7DEB783E58B8313E58DE4F82E93E54A
:10101000E92E00E02AE030E040E050E0BE016F5FE2
:101020007F4F8091290290912A02B3D2811103C08F
:10103000EB82F8D028C0E981FA8182819381FB821A
:101040006081718197FD14C077FD0DC08DD0E9815D
:10105000FA8180819181892BB1F482819381892BDE
:1010600091F4EB8210C071956195710992D00BC01B
:1010700091958195910977FD02C0A5D004C0719525
:1010800061957109B5D08B81181771F000E023E0EC
:1010900030E040E050E0BE016D5F7F4F809127025D
:1010A00090912802E0D18B81182FB3CF81E08093FB
:1010B0002F024ED0C4DEA4CDAF92BF92CF92DF926A
:1010C000EF92FF920F93A12CB12CC12CD12CE12CCB
:1010D000F12C04E020E030E048EC50E069E271E0FF
:1010E0008AEC97E07CD303E020E030E048EC50E06D
:1010F00067E371E08CEF97E072D301E020E030E02D
:1011000048EC50E061E471E08EEA97E068D30F911B
:10111000FF90EF90DF90CF90BF90AF9054C440E02D
:1011200062E081E06ED190932A028093290240E030
:1011300061E081E066D1909328028093270240E02D
:1011400061E081E05ED190932602809325020895AC
:1011500061E089E0EADC61E08AE0E7DC61E085E00B
:10116000E4DC61E086E0E1CCCF93DF93EC01861B09
:10117000970BBC0189E053DCBE0185E050DC60E0E8
:1011800070E08AE04CDC60E070E086E0DF91CF91B7
:1011900046CC0F931F93CF93DF93EC018B01BC01DF
:1011A00089E03DDCBE01601B710B85E038DC60E04E
:1011B00070E08AE034DC60E070E086E0DF91CF919F
:1011C0001F910F912CCCCF93DF93EC01861B970BD3
:1011D000BC018AE024DCBE0186E021DC60E070E036
:1011E00089E01DDC60E070E085E0DF91CF9117CCF5
:1011F0000F931F93CF93DF93EC018B01BC018AE027
:101200000EDCBE01601B710B86E009DC60E070E063
:1012100089E005DC60E070E085E0DF91CF911F910F
:101220000F91FDCB60E089E0BCDC60E08AE0B9DCD6
:1012300060E085E0B6DC60E086E0B3CC1F93CF933E
:10124000DF93EC01142F88A181110BC08881998153
:10125000892B09F041C08A819B8189D71B821A8220
:101260003CC0482F50E0111115C08C819D810E9417
:10127000FD1328A18C819D81820F911D9D838C83FC
:101280002A813B818217930738F1888199819D8358
:101290008C8322C08E819F810E94FD1388A190E0E3
:1012A0009195819591092E813F81280F391F3F83A8
:1012B0002E83488159812417350730F42A813B81D8
:1012C000820F931F9F838E83123031F48E8D88237B
:1012D00019F08E8D81508E8F80E09E8D9F5F9E8F46
:1012E000DF91CF911F910895FC01CB0140A14423D0
:1012F000A1F050E026813781240F351F37832683E4
:10130000628173812617370720F02081318137836E
:101310002683668177810C94FD1308950F931F93A4
:10132000CF93DF93EC010FB6F8940F928C010D5E12
:101330001F4F9AA119165CF48B89882341F0C801CC
:1013400012D68111B1D69AA191509AA3F2CF8FEF04
:101350008AA30F900FBE0FB6F8940F928E01085F0C
:101360001F4F99A119165CF48885882341F0C801A4
:10137000FAD5811199D699A1915099A3F2CF8FEF07
:1013800089A30F900FBEDF91CF911F910F91089508
:10139000CF93DF93EC010FB6F8940F922881398137
:1013A0009F8D48A1949FC0011124F901E80FF91FF6
:1013B000FB83EA831E8E3D832C83841B9109820F5D
:1013C000931F9F838E838FEF89A38AA361110BC024
:1013D0008885882381F0CE010896C5D5813059F4DF
:1013E0000E94641208C0CE0108960E941813CE0114
:1013F00043960E9418130F900FBE81E0DF91CF91AA
:101400000895EF92FF921F93CF93DF931F92CDB772
:10141000DEB7182F662331F0869F90011124C90191
:10142000019602C080E090E083966983ECD67C014F
:101430006981009781F0611104C0FC019183808370
:1014400004C08396F70191838083F701178F60A30F
:1014500061E0C7019DDFC7010F90DF91CF911F9120
:10146000FF90EF900895AF92BF92CF92DF92EF92EC
:10147000FF920F93CF93DF93CDB7DEB729970FB6C7
:10148000F894DEBF0FBECDBF7C016B012E833F837E
:101490004887598790E0570188E0A80EB11C0FB625
:1014A000F8940F92F701268D878D281710F00230DF
:1014B000A9F4402FB601C701C1DEF7019389992332
:1014C00039F0C70143964FD5813021F4FDD702C0D2
:1014D0008111FCCF0F900FBE81E04BC04E815F8128
:1014E00068857985452B462B472B19F40F900FBE45
:1014F0003FC0911103C0CE01019672D50F900FBE6F
:10150000A1D20FB6F8940F92F70181A18F3F09F491
:1015100011A2F70182A18F3F09F412A20F900FBE12
:10152000BE016A5F7F4FCE0101966BD581111DC050
:101530000FB6F8940F92F701968D0F900FBE878D1E
:1015400098130FC04E815F8168857985C501E4D409
:10155000C701E4DE58D3882311F091E0A0CFB4D7BF
:10156000FCCFC701DBDE4FD3F8CFC701D7DE4BD3AB
:1015700080E029960FB6F894DEBF0FBECDBFDF9195
:10158000CF910F91FF90EF90DF90CF90BF90AF90F1
:101590000895AF92BF92CF92DF92EF92FF920F9396
:1015A000CF93DF93CDB7DEB729970FB6F894DEBFA0
:1015B0000FBECDBF7C016B012E833F8348875987C7
:1015C00090E0570183E1A80EB11C0FB6F8940F927A
:1015D000F701868D882361F1A680B780B601C70127
:1015E00083DEF701011116C0868D8150868F8081C0
:1015F0009181892B21F4F5D5F70193838283F7013B
:101600008085882389F0C7010896ADD4813061F4C4
:101610005BD70AC0B782A6828389882329F0C701D5
:101620004396A1D48111F4CF0F900FBE81E056C034
:101630004E815F8168857985452B462B472B19F4B0
:101640000F900FBE4AC0911103C0CE010196C8D4BD
:101650000F900FBEF7D10FB6F8940F92F70181A14A
:101660008F3F09F411A2F70182A18F3F09F412A262
:101670000F900FBEBE016A5F7F4FCE010196C1D4AD
:10168000811128C00FB6F8940F92F701868D0F9044
:101690000FBE81111BC080819181892B41F40FB64F
:1016A000F8940F928281938103D50F900FBE4E81E3
:1016B0005F8168857985C5012FD4C7012FDEA3D24C
:1016C000882311F091E081CFFFD6FCCFC70126DE41
:1016D0009AD2F8CFC70122DE96D280E029960FB6C3
:1016E000F894DEBF0FBECDBFDF91CF910F91FF9079
:1016F000EF90DF90CF90BF90AF900895E0915902A6
:10170000F0915A028081811104C08FEF9FEFDC01BC
:101710000EC0E0915902F0915A020780F085E02D49
:101720000084F185E02D82819381A481B58180932D
:10173000310290933202A0933302B09334020895A1
:10174000CF92DF92EF92FF92E091DF02F091E00200
:101750006283738384839583C0903B02D0903C0264
:10176000E0903D02F0903E026C157D058E059F05D0
:1017700078F46091DF027091E002809157029091BD
:1017800058026E5F7F4FFF90EF90DF90CF9086C73B
:101790006B017C016091DF027091E002809159023F
:1017A00090915A026E5F7F4F79D78091310290916C
:1017B0003202A0913302B0913402C816D906EA066B
:1017C000FB0640F4C0923102D0923202E092330222
:1017D000F0923402FF90EF90DF90CF9008955F92E7
:1017E0006F927F928F929F92AF92BF92CF92DF9231
:1017F000EF92FF920F931F93CF93DF934C01162F1D
:10180000572E5A013901C114D10431F4CA01FBD455
:101810006C01892B09F4C6C08CE290E0F4D4EC0191
:10182000009779F0DC8ECB8E21E0A21AB108AC0CC7
:10183000BD1CBC01635E7F4FE12FF52DCF010896E3
:1018400006C0C60170D5AEC0E817F90749F09F0180
:101850004191DB014D93BD01D9012C912111F4CFB0
:101860001CA2102F0A3008F019E01A8F1DA31EA227
:101870006E01B2E0CB0ED11CC601EBD6CE010E96A6
:10188000E8D6DB87CA878AE090E0A0E0B0E0811B61
:101890009109A109B1098E879F87A88BB98BDF8B2E
:1018A000CE8B1FA218A619A61AA61BA6A301B401C7
:1018B000C50163D599838883E114F10419F0F70118
:1018C000D183C0830FB6F8940F9280913F028F5F4F
:1018D00080933F028091DF029091E002892B79F59D
:1018E000D093E002C093DF0280913F028130B1F5D6
:1018F00081E7E82E82E0F82EC7019AD6FBE0EF0ED2
:10190000F11C2FEDE21622E0F206B1F786E692E036
:101910008FD68BE592E08CD68CE492E089D681E478
:1019200092E086D686E692E090935A02809359021E
:101930008BE592E090935802809357020FC08091FC
:10194000390281110BC0E091DF02F091E002828D3B
:10195000081720F0D093E002C093DF028091350297
:101960008F5F809335028A8D90913A02981710F418
:1019700080933A02ABE08A9FC0011124B6018F58D0
:101980009D4F6BD60F900FBE80913902882341F096
:10199000E091DF02F091E002828D801708F494D587
:1019A00081E001C08FEFDF91CF911F910F91FF90E8
:1019B000EF90DF90CF90BF90AF909F908F907F90EF
:1019C0006F905F900895AF92BF92CF92DF92EF92A7
:1019D000FF920F93A12CB12CC12CD12CE12CF12C16
:1019E00000E020E030E045E550E069E471E082E1AC
:1019F0009FE0F5DE8130F1F4F8944FEF5FEFBA012C
:101A00004093310250933202609333027093340258
:101A10008093390210923B0210923C0210923D02D8
:101A200010923E020F91FF90EF90DF90CF90BF9009
:101A3000AF900FC50F91FF90EF90DF90CF90BF90C8
:101A4000AF900895809130028F5F809330020895A7
:101A50000FB6F8940F9260913B0270913C02809116
:101A60003D0290913E020F900FBE08958F929F927B
:101A7000AF92BF92EF92FF920F931F93CF93DF939A
:101A8000809130028111A9C080913B0290913C026B
:101A9000A0913D02B0913E020196A11DB11D80931F
:101AA0003B0290933C02A0933D02B0933E02809093
:101AB0003B0290903C02A0903D02B0903E02811407
:101AC0009104A104B104B1F48091590290915A0299
:101AD000209157023091580230935A0220935902B4
:101AE0009093580280935702809136028F5F8093C3
:101AF000360204DE8091310290913202A0913302CD
:101B0000B0913402C0E088169906AA06BB0608F414
:101B100054C0DBE0E0915902F0915A0280818111BA
:101B200004C08FEF9FEFDC0113C0E0915902F091E8
:101B30005A020780F085E02D00851185F801828129
:101B40009381A481B58188169906AA06BB0648F43C
:101B50008093310290933202A0933302B093340207
:101B60002CC07801F2E0EF0EF11CC701DBD5D801E3
:101B700058968D919C915997892B19F0C8010E9612
:101B8000D1D5F801928D80913A02891710F4909383
:101B90003A02D99FC0011124B7018F589D4F5DD5DE
:101BA000E091DF02F091E002D8015A969C91828D7B
:101BB000981708F4AFCFC1E0ADCFE091DF02F0910C
:101BC000E002E28DBBE0EB9FF0011124EF58FD4FE6
:101BD0008081823040F0C1E006C0809138028F5F82
:101BE00080933802C0E0809137028111C1E08C2FD0
:101BF000DF91CF911F910F91FF90EF90BF90AF9029
:101C00009F908F900895EF92FF920F931F93CF9321
:101C1000DF930FB6F8940F92809130028150809339
:101C2000300280913002882311F080E04EC0809114
:101C30003F028823D1F38BE0F82EEE24E3948091C9
:101C40004C02882339F1E0915302F0915402C0858F
:101C5000D185CE010E9666D58E010E5F1F4FC8014D
:101C600061D59A8D80913A02891710F490933A02C7
:101C7000F99EC0011124B8018F589D4FEED4E09118
:101C8000DF02F091E0029A8D828D9817C0F2E09207
:101C90003702D5CF80913802811108C08091370278
:101CA000813009F0C2CF10D481E00FC0C1E0809133
:101CB0003802882399F3DADE8111C09337028091CC
:101CC0003802815080933802F2CF0F900FBEDF911F
:101CD000CF911F910F91FF90EF900895AF92BF9217
:101CE000CF92DF92EF92FF920F931F93CF93DF93E8
:101CF00000D000D0CDB7DEB75C0149835A836B8337
:101D00007C83A0DE00913B0210913C0220913D02B9
:101D100030913E02F50180819181A281B381498198
:101D20005A816B817C816C017D01C40ED51EE61E3B
:101D3000F71E081719072A073B0730F4C816D906FB
:101D4000EA06FB0660F405C0C816D906EA06FB06DB
:101D500040F091E00C151D052E053F0518F090E0B0
:101D600001C091E0F501C082D182E282F382992321
:101D700049F08091DF029091E0020296D3D4C7012E
:101D8000B601DEDC40DF811101C09ED30F900F90C1
:101D90000F900F90DF91CF911F910F91FF90EF90D7
:101DA000DF90CF90BF90AF900895CF92DF92EF92E7
:101DB000FF92CF93DF9300D000D0CDB7DEB761158F
:101DC00071058105910511F47FD321C069837A8360
:101DD0008B839C8337DEC0903B02D0903C02E09026
:101DE0003D02F0903E0269817A818B819C81C60E12
:101DF000D71EE81EF91E8091DF029091E002029644
:101E000091D4C701B6019CDCFEDE8823E9F20F9075
:101E10000F900F900F90DF91CF91FF90EF90DF9098
:101E2000CF90089580914002882321F10BDEC0916C
:101E30004102E9DECC23B1F30FB6F8940F92E091A2
:101E40004802F0914902C085D185CE0102966AD43C
:101E500080913F02815080933F02809140028150E7
:101E6000809340020F900FBE8B8D9C8D5CD2CE0173
:101E70005AD2D8CF809171028230A0F225D3D2CF2E
:101E800080913002882321F081E080933702089509
:101E9000109237029BE0E0913A029E9FF0011124DC
:101EA000EF58FD4F8081811106C080913A02815028
:101EB00080933A02F0CF80913A0290E04BE0489F45
:101EC0009001499F300D1124F901EF58FD4FA18178
:101ED000B28114960D90BC91A02DB283A1832C5891
:101EE0003D4FA217B30731F414962D913C911597ED
:101EF000328321832BE0289FF001299FF00D1124CC
:101F0000EF58FD4F0180F281E02D808591859093FF
:101F1000E0028093DF020895CF92DF92EF92FF926A
:101F20006A017B012091DF023091E002B901625F1A
:101F30007F4FB4D38091DF029091E0020296F2D3FA
:101F400080913B0290913C02A0913D02B0913E02F3
:101F5000BC01CD016C0D7D1D8E1D9F1DFF90EF906E
:101F6000DF90CF90EDCB0F931F93CF93DF93DC01E6
:101F70001796ED91FC911897C085D1858E01025F6F
:101F80001F4FC801CFD380913002811113C00C5074
:101F90001109C801C7D39A8D80913A02891710F4AC
:101FA00090933A02BBE09B9FC0011124B8018F5867
:101FB0009D4F03C0B8018CE492E04FD3E091DF0263
:101FC000F091E0029A8D828D891720F481E0809350
:101FD000370201C080E0DF91CF911F910F910895EA
:101FE00020913602FC01208340913B0250913C023B
:101FF00060913D0270913E024183528363837483FA
:1020000008958F929F92AF92BF92CF92DF92EF92FC
:10201000FF920F931F93FB010FB6F8940F92C0909D
:102020003B02D0903C02E0903D02F0903E023091A5
:102030003602DC012C9111964D915D916D917C9150
:102040001497321729F0C416D506E606F706F0F401
:10205000008111812281338146015701841A950A3A
:10206000A60AB70A80169106A206B30678F44C19A0
:102070005D096E097F09400F511F621F731F408366
:10208000518362837383ACDF80E001C081E00F90F5
:102090000FBE1F910F91FF90EF90DF90CF90BF90F8
:1020A000AF909F908F90089581E0809337020895BC
:1020B0000F931F93CF93DF93FC01892B09F452C038
:1020C000828DA091DF02B091E0025A969C9189170F
:1020D00008F048C0468557856089718977FD12C030
:1020E000A091DF02B091E0025A969C914AE050E044
:1020F00060E070E0491B5109610971094687578703
:10210000608B718B2BE0829FC00111248F589D4FF3
:102110002485358528173907F1F48F01EF012296C0
:10212000CE0100D3E091DF02F091E002928DF80140
:10213000928F80913A02891710F490933A02FBE053
:102140009F9FC0011124BE018F589D4FDF91CF91F9
:102150001F910F9182C2A091DF02B091E0025A96C6
:102160008C91828FDF91CF911F910F9108950F93E2
:102170001F93CF93DF93FC01892B11F480E02CC0D7
:1021800086A1815086A3228D95A12917B9F38111CB
:10219000F5CFEF018F010E5F1F4FC801C3D29DA184
:1021A0009A8F4AE050E060E070E0491B51096109F4
:1021B00071094E875F87688B798B80913A02891706
:1021C00010F490933A022BE0929FC0011124B801C1
:1021D0008F589D4F42D281E0DF91CF911F910F9197
:1021E00008958091DF029091E002892B39F0E0910F
:1021F000DF02F091E00286A18F5F86A38091DF026B
:102200009091E00208950F931F93CF93DF93EC0119
:1022100019DC8091E102811121C08BEE92E0909354
:10222000E7028093E6021092E9021092E8028BED39
:1022300095E09093E5028093E4021092E3021092FD
:10224000E2029093EE028093ED0282EE92E0909390
:10225000EC028093EB0281E08093E102209709F089
:102260002496CE0101978A3D954008F053C0E09135
:10227000E602F091E702A6EEB2E0828193818C172C
:102280009D0728F022E0E23EF20749F443C0208196
:10229000318121153105B1F3DF01F901EECF0D9147
:1022A0001C9111970C5F1F4F208131812D933C931E
:1022B0008C1B9D0B8930910500F1DF01AC0FBD1F18
:1022C00013969C938E931297D383C28312962D916B
:1022D0003C91139766EE72E0EB0188819981EC01E5
:1022E0004A815B814217530710F4BC01F5CF119668
:1022F0009C938E93EB01B983A88380910D019091FB
:102300000E0122813381821B930B90930E018093E7
:102310000D0102C000E010E076DCC801DF91CF9132
:102320001F910F910895CF93DF93009719F1EC015E
:10233000249788DB8A819B81E6EEF2E0A081B1815F
:1023400012962D913C9113972817390710F4FD012F
:10235000F5CFB983A883D183C08320910D0130913B
:102360000E01820F931F90930E0180930D01DF9158
:10237000CF9149CCDF91CF91089531E1FC013083B9
:10238000319722E220833197A3E3A08331976083C2
:102390003197708331971082319760E8608331976D
:1023A0001082319762E06083319763E060833197F8
:1023B00064E06083319765E06083319766E0608315
:1023C000319767E06083319768E06083319769E017
:1023D0006083319760E1608331973083319732E1D8
:1023E0003083319733E13083319734E13083319753
:1023F00035E13083319736E13083319737E13083EF
:10240000319738E13083319739E13083319730E2C9
:102410003083319731E2308331972083319723E243
:1024200020833197408331975083319726E2208370
:10243000319727E22083319728E22083319729E2E0
:102440002083319720E32083319721E320838697EF
:10245000089589E08093890083EC809388008BE065
:1024600080938100EFE6F0E0808182608083A0911C
:10247000DF02B091E002CD91CDBFDD91DEBFFF91D3
:10248000EF91DF91CF91BF91AF919F918F917F910C
:102490006F915F914F913F912F911F910F91FF90FD
:1024A000EF90DF90CF90BF90AF909F908F907F90F4
:1024B0006F905F904F903F902F901F900F900FBEA6
:1024C0000F90089581E008950F920FB6F8940F923F
:1024D0001F9211242F923F924F925F926F927F92A0
:1024E0008F929F92AF92BF92CF92DF92EF92FF9224
:1024F0000F931F932F933F934F935F936F937F930C
:102500008F939F93AF93BF93CF93DF93EF93FF93FB
:10251000A091DF02B091E0020DB60D920EB60D92C1
:10252000AFDCA091DF02B091E002CD91CDBFDD9193
:10253000DEBFFF91EF91DF91CF91BF91AF919F915E
:102540008F917F916F915F914F913F912F911F914B
:102550000F91FF90EF90DF90CF90BF90AF909F9042
:102560008F907F906F905F904F903F902F901F9033
:102570000F900FBE0F9008950F920FB6F8940F9220
:102580001F9211242F923F924F925F926F927F92EF
:102590008F929F92AF92BF92CF92DF92EF92FF9273
:1025A0000F931F932F933F934F935F936F937F935B
:1025B0008F939F93AF93BF93CF93DF93EF93FF934B
:1025C000A091DF02B091E0020DB60D920EB60D9211
:1025D0004DDA811155DCA091DF02B091E002CD917E
:1025E000CDBFDD91DEBFFF91EF91DF91CF91BF9124
:1025F000AF919F918F917F916F915F914F913F919B
:102600002F911F910F91FF90EF90DF90CF90BF908F
:10261000AF909F908F907F906F905F904F903F9082
:102620002F901F900F900FBE0F900895A5DF189563
:10263000FC010396928381834FEF5FEFBA014383DE
:1026400054836583768390878783928781871082FE
:102650000895FC01138612860895CF93DF939C01A1
:10266000FB01DC011196CD91DC911297D583C483D7
:102670008E819F81978386838E819F81DC01159651
:102680007C936E9314977F836E8333872287F9013F
:1026900080818F5F8083DF91CF910895EF92FF92C9
:1026A0000F931F93CF93DF937C01FB0140815181F6
:1026B000628173814F3F8FEF58076807780721F4D5
:1026C000E701A985BA8512C0D701139614968D919A
:1026D0009C911597EC01088119812A813B81401753
:1026E00051076207730710F0DC01F0CF14968D914B
:1026F0009C91159795838483EC01FF83EE83B783C8
:10270000A6831596FC93EE931497F386E286F70161
:1027100080818F5F8083DF91CF911F910F91FF9018
:10272000EF900895CF93DF93FC01A285B385848158
:10273000958126813781EC013F832E83C681D78125
:102740009D838C8311968D919C9112978E179F0774
:1027500021F41296DC93CE931197138612868C91F6
:1027600081508C93DF91CF910895A1E21A2EAA1B7C
:10277000BB1BFD010DC0AA1FBB1FEE1FFF1FA21731
:10278000B307E407F50720F0A21BB30BE40BF50B2E
:10279000661F771F881F991F1A9469F760957095B7
:1027A000809590959B01AC01BD01CF010895EE0F7E
:1027B000FF1F0590F491E02D0994FC0188279927CB
:1027C000E89421912032E9F3293010F02E30C8F33B
:1027D0002B3239F02D3231F4689403C03ED0820F91
:1027E000911D219120532A30C8F31EF490958195B4
:1027F0009F4F08954EE451E009C0FB01DC0102C087
:1028000001900D9241505040D8F70895FA01A191DE
:10281000B081009719F41097E1F0CD01DC01CD01F2
:102820000D90002011F4C00113C0FB01219122235F
:1028300019F02015D9F7F3CFFB012191201519F4D8
:102840001E92119606C02223C1F70D900020A1F719
:10285000D001FA01A193B08308957AE0979F902D5B
:0E286000879F802D910D11240895F894FFCFCD
:10286E00FFD103D10307000D000C000800DB0500AB
:10287E0000000014019602B600F3008800A2009436
:10288E0000000000004C0223005461736B426C7513
:10289E0065746F6F7468005461736B4D6F746F72F3
:0E28AE00005461736B4C65640049444C450056
:00000001FF
