:100000005EC00000CEC30000F3C300007FC000004C
:100010007DC000007BC0000079C0000066C3000006
:1000200075C0000073C0000071C000000C94BB0ECE
:100030006DC000006BC0000069C0000067C0000018
:100040000AC4000063C0000099C10000C9C10000DB
:100050005DC000005BC0000059C0000057C0000038
:1000600055C0000053C0000002000000080002015B
:10007000000003040700000000000000000102046B
:10008000081020408001020408102001020408101A
:100090002004040404040404040202020202020311
:1000A000030303030300000000250028002B0000C9
:1000B000000000240027002A00001E028A021124EA
:1000C0001FBECFEFD8E0DEBFCDBF11E0A0E0B1E0B2
:1000D000E6EAFFE102C005900D92A434B107D9F71A
:1000E00028E0A4E4B1E001C01D92A03BB207E1F713
:1000F00010E0CFE5D0E004C02197FE010E947C0F04
:10010000CD35D107C9F79DD30C94D10F79CFFC0120
:10011000918D228D892F90E0805C9F4F821B9109E9
:100120008F7399270895FC01918D828D981731F076
:10013000828DE80FF11D858D90E008958FEF9FEF80
:100140000895FC01918D828D981761F0828DDF01F9
:10015000A80FB11D5D968C91928D9F5F9F73928FBA
:1001600090E008958FEF9FEF0895FC01538D448D2B
:10017000252F30E0842F90E0821B930B541710F052
:10018000CF9608950197089585E192E0892B41F07B
:1001900080E090E0892B21F048D181110C9400007F
:1001A0000895FC01848DDF01A80FB11DA35ABF4F34
:1001B0002C91848D90E001968F739927848FA68966
:1001C000B7892C93A089B1898C9180648C93938D8D
:1001D000848D981306C00288F389E02D80818F7D7D
:1001E00080830895CF93DF93EC01888D8823C1F03D
:1001F000EA89FB89808185FD05C0A889B9898C9130
:1002000086FD0EC00FB607FCF5CF808185FFF2CFCB
:10021000A889B9898C9185FFEDCFCE01C2DFE8CFE7
:10022000DF91CF910895EF92FF920F931F93CF9399
:10023000DF93EC0181E0888F9B8D8C8D981305C036
:10024000E889F989808185FD23C0F62E0B8D10E0A9
:100250000F5F1F4F0F731127E02E8C8DE8120BC01C
:100260000FB607FCFACFE889F989808185FFF5CFC1
:10027000CE0197DFF2CF8B8DFE01E80FF11DE35A1F
:10028000FF4FF0820B8FEA89FB898081806207C073
:10029000EE89FF896083E889F989808180648083A1
:1002A00081E090E0DF91CF911F910F91FF90EF904F
:1002B0000895CF92DF92EF92FF921F93CF93DF9337
:1002C000EC016A017B01122FE889F98982E08083C1
:1002D0004115514E61057105B1F060E079E08DE3A3
:1002E00090E0A70196010E945A0FDA01C901019717
:1002F000A109B109B695A79597958795AC014115C8
:1003000080E15807A8F0E889F989108260E874E86C
:100310008EE190E0A70196010E945A0FBA01A9014F
:10032000415051096109710976956795579547952F
:10033000EC85FD855083EE85FF854083188EEC8922
:10034000FD891083EA89FB89808180618083EA8945
:10035000FB89808188608083EA89FB89808180684D
:100360008083EA89FB8980818F7D8083DF91CF91B3
:100370001F91FF90EF90DF90CF9008951F920F9202
:100380000FB60F9211242F938F939F93EF93FF93A8
:10039000E0915601F09157018081E0915C01F0916C
:1003A0005D0182FD12C0908180915F018F5F8F732C
:1003B00020916001821751F0E0915F01F0E0EA5B6B
:1003C000FE4F958F80935F0101C08081FF91EF9177
:1003D0009F918F912F910F900FBE0F901F901895A6
:1003E0001F920F920FB60F9211242F933F934F93AA
:1003F0005F936F937F938F939F93AF93BF93EF938D
:10040000FF9386E491E0CDDEFF91EF91BF91AF9134
:100410009F918F917F916F915F914F913F912F911C
:100420000F900FBE0F901F90189586E491E06FDE3D
:1004300021E0892B09F420E0822F0895E6E4F1E021
:100440001382128288EE93E0A0E0B0E0848395836B
:10045000A683B78383E191E09183808385EC90E06C
:100460009587848784EC90E09787868780EC90E07E
:10047000918B808B81EC90E0938B828B82EC90E06F
:10048000958B848B86EC90E0978B868B118E128EE9
:10049000138E148E08958F929F92AF92BF92CF9237
:1004A000DF92EF92FF920F931F93CF93DF937C0124
:1004B0008B016C0182E0C80ED11C4701E5E08E0E75
:1004C000911CC0E0D0E0F60161916F014AE050E07C
:1004D000C801D1D05C016EE2C80167D08A0D9B1DB6
:1004E000C80FD91FC814D90471F74AE050E0F701CA
:1004F0006581C801C0D08C0F9D1FDF91CF911F91E6
:100500000F91FF90EF90DF90CF90BF90AF909F90B2
:100510008F900895E3EEF1E085E291E0918380838E
:1005200012821382148215820895CF92DF92EF9285
:10053000FF920F931F93CF93DF936C017A018B018E
:10054000C0E0D0E0CE15DF0589F0D8016D918D01B6
:10055000D601ED91FC910190F081E02DC601099545
:10056000892B11F47E0102C02196ECCFC701DF91E7
:10057000CF911F910F91FF90EF90DF90CF90089552
:100580006115710579F0FB0101900020E9F73197C1
:10059000AF01461B570BDC01ED91FC910280F3810A
:1005A000E02D099480E090E00895DC01ED91FC914C
:1005B0000190F081E02D09948F929F92AF92BF92AB
:1005C000CF92DF92EF92FF920F931F93CF93DF931F
:1005D000CDB7DEB7A1970FB6F894DEBF0FBECDBF83
:1005E0007C01D42EC52EDB0119A2223008F42AE0AA
:1005F0008E010F5D1F4F822E912CA12CB12C6D2DE1
:100600007C2DCD01A50194010E945A0FD22EC32E3C
:10061000DA01015011096A3071058105910510F464
:10062000605D01C0695CF8016083232B242B252BBE
:1006300031F7B801C701A4DFA1960FB6F894DEBF69
:100640000FBECDBFDF91CF911F910F91FF90EF9023
:10065000DF90CF90BF90AF909F908F90089521151D
:10066000310541F4DC01ED91FC910190F081E02D28
:10067000642F0994A1CF9A01462F50E060E070E00A
:10068000EECF813039F018F0823051F00895109299
:100690006E00089580916F008D7F80936F000895A4
:1006A000809170008D7F8093700081E08093B00016
:1006B0008091B100887F84608093B1001092B30074
:1006C0000895CF93C82F809100018C1307C0E8E6EE
:1006D000F0E0E4918FEF8093000101C0EFEF8E2FE7
:1006E000D0DF60E08C2FCF915BC21F920F920FB6CC
:1006F0000F9211242F933F934F935F936F937F93A8
:100700008F939F93AF93BF93EF93FF938091EC01EF
:100710009091ED01A091EE01B091EF01892B8A2B10
:100720008B2B51F18091E901E091EA01F091EB010D
:100730009081892780838091EC019091ED01A091B7
:10074000EE01B091EF01181619061A061B06BCF44B
:100750008091EC019091ED01A091EE01B091EF013B
:100760000197A109B1098093EC019093ED01A09349
:10077000EE01B093EF0103C080910001A2DFFF9171
:10078000EF91BF91AF919F918F917F916F915F9109
:100790004F913F912F910F900FBE0F901F90189582
:1007A00008951F920F920FB60F9211242F933F932B
:1007B0004F935F936F937F938F939F93AF93BF9369
:1007C000EF93FF93E0910101F09102010995FF91F0
:1007D000EF91BF91AF919F918F917F916F915F91B9
:1007E0004F913F912F910F900FBE0F901F90189532
:1007F0001F920F920FB60F9211242F933F934F9396
:100800005F936F937F938F939F93AF93BF93EF9378
:10081000FF93E0910301F09104010995FF91EF919D
:10082000BF91AF919F918F917F916F915F914F9108
:100830003F912F910F900FBE0F901F901895089524
:100840000895B1D0FDDF9BD3C4ECD0E0C7D320978F
:10085000E9F39ADCFBCF1F920F920FB60F9211248F
:100860002F933F938F939F93AF93BF938091F10109
:100870009091F201A091F301B091F4013091F00157
:1008800023E0230F2D3720F40196A11DB11D05C0D3
:1008900026E8230F0296A11DB11D2093F00180933D
:1008A000F1019093F201A093F301B093F4018091D0
:1008B000F5019091F601A091F701B091F801019630
:1008C000A11DB11D8093F5019093F601A093F7014E
:1008D000B093F801BF91AF919F918F913F912F916C
:1008E0000F900FBE0F901F9018953FB7F89480910E
:1008F000F5019091F601A091F701B091F80126B5AC
:10090000A89B05C02F3F19F00196A11DB11D3FBF47
:10091000BA2FA92F982F8827820F911DA11DB11DD5
:10092000BC01CD0142E0660F771F881F991F4A95D1
:10093000D1F708958F929F92AF92BF92CF92DF929C
:10094000EF92FF926B017C01D0DF4B015C01C1147F
:10095000D104E104F104F1F072DFC7DFDC01CB0167
:1009600088199909AA09BB09883E9340A105B105D8
:1009700070F321E0C21AD108E108F10888EE880E70
:1009800083E0981EA11CB11CC114D104E104F10440
:1009900021F7DDCFFF90EF90DF90CF90BF90AF9029
:1009A0009F908F900895789484B5826084BD84B5BB
:1009B000816084BD85B5826085BD85B5816085BD5A
:1009C000EEE6F0E0808181608083E1E8F0E0108273
:1009D000808182608083808181608083E0E8F0E0B4
:1009E000808181608083E1EBF0E08081846080839E
:1009F000E0EBF0E0808181608083EAE7F0E08081D5
:100A00008460808380818260808380818160808334
:100A10008081806880831092C10008951F93CF93D6
:100A2000DF93182FEB0161E07FD0209711F460E095
:100A300004C0CF3FD10531F461E0812FDF91CF9128
:100A40001F91AEC0E12FF0E0E759FF4FE491E33092
:100A5000F9F048F4E130B9F0E230A1F584B58062F4
:100A600084BDC8BD34C0E730E9F0E83019F1E430A6
:100A700049F580918000806280938000D0938B0044
:100A8000C0938A0024C084B5806884BDC7BD1FC0E0
:100A900080918000806880938000D0938900C0930B
:100AA000880015C08091B00080688093B000C0932A
:100AB000B3000DC08091B00080628093B000C093FD
:100AC000B40005C0C038D1050CF0B6CFB0CFDF916F
:100AD000CF911F910895833081F028F4813099F0EF
:100AE0008230A1F008958730A9F08830B9F08430C1
:100AF000D1F4809180008F7D03C0809180008F773A
:100B000080938000089584B58F7702C084B58F7D6F
:100B100084BD08958091B0008F7703C08091B000AC
:100B20008F7D8093B0000895CF93DF9390E0FC0118
:100B3000E358FF4F2491FC01EF56FF4F8491882327
:100B400061F190E0880F991FFC01E155FF4FC591BD
:100B5000D491FC01EB55FF4FA591B491611109C0EF
:100B60009FB7F8948881209582238883EC912E2367
:100B70000BC0623061F49FB7F8943881822F809562
:100B800083238883EC912E2B2C939FBF06C08FB7B5
:100B9000F894E8812E2B28838FBFDF91CF910895A1
:100BA0001F93CF93DF93282F30E0F901E759FF4FD0
:100BB0008491F901E358FF4FD491F901EF56FF4FAB
:100BC000C491CC23C1F0162F811185DFEC2FF0E00A
:100BD000EE0FFF1FEB55FF4FA591B4918FB7F8941F
:100BE000111105C09C91ED2FE095E92302C0EC9115
:100BF000ED2BEC938FBFDF91CF911F91089526E0ED
:100C000040E855E260E070E086E491E052CBCF939B
:100C1000DF9386E491E07BDA892B09F446C086E411
:100C200091E08FDA80930402853681F02091F901FA
:100C30003091FA01A9014F5F5F4F5093FA01409341
:100C4000F901F901E550FE4F808326C01092FA01A8
:100C50001092F90167E271E08BEF91E00E949F0F23
:100C6000EC010E94820F90930A0280930902CD2B1F
:100C700061F067E271E080E090E00E949F0F0E94C7
:100C8000820F90930C0280930B0289E0EBEFF1E06E
:100C9000DF011D928A95E9F76091090270910A02BD
:100CA00080910B0290910C0208C060910502709136
:100CB00006028091070290910802DF91CF9108957A
:100CC000EF92FF920F931F93CF93DF93D82FC62FEE
:100CD000E42E61E08C2F28DF61E08D2F25DF60E0BE
:100CE0008D2F5EDF60E08C2F5BDF07E010E0F12CE2
:100CF00060E08C2F55DFB701002E02C07595679517
:100D00000A94E2F7617077278D2F4ADF61E08C2F1C
:100D100047DF60E08D2F44DF0150110948F760E0A4
:100D20008C2FDF91CF911F910F91FF90EF9038CFD3
:100D3000CF92DF92EF92FF920F931F93CF93DF93A7
:100D40008C016B0160E080910B012ADF6091090149
:100D500070910A0140E08091070190910801B0DF95
:100D60006091090170910A0140E080910701909122
:100D70000801A6DF61E080910B0112DF68EC70E0F2
:100D800080E090E0D7DDC0E0D0E00D2C000CEE0854
:100D9000FF08C017D1070CF040C060E080910B0144
:100DA000FFDE6091090170910A014FEF8091070108
:100DB0009091080185DF6091090170910A014FEF60
:100DC00080910701909108017BDF61E080910B0128
:100DD000E7DEC701B601AEDD60E080910B01E0DE29
:100DE0006091090170910A0140E0809107019091A2
:100DF000080166DF6091090170910A0140E080916D
:100E00000701909108015CDF61E080910B01C8DE71
:100E1000C701B6018FDD2196BCCFDF91CF911F9125
:100E20000F91FF90EF90DF90CF90089561E0809157
:100E300005017ADE61E080910B0176DEEDE0F2E003
:100E400081E0808382E0818384E0828388E0838301
:100E500080E1848380E2858380E4868380E88783E1
:100E60008FEF8093170264EF71E082E090E060CF33
:100E7000CF93DF93C5E0D1E061E0888191DE64EF3C
:100E800071E080E090E0ADD460E0888189DE64EFBD
:100E900071E080E090E0DF91CF91A3C4CF93DF9326
:100EA000CDE0D2E089918093180260E080910B013F
:100EB00077DE6091090170910A01409118028091DA
:100EC000070190910801FCDE61E080910B0168DE72
:100ED0006CE271E080E090E084D482E0C531D80714
:100EE00009F7DF91CF910895D9DFC2CFCF93DF9378
:100EF000C5E0D1E061E0888153DE6AEF70E080E018
:100F000090E06FD460E088814BDE6AEF70E080E0B3
:100F100090E0DF91CF9165C4CF93DF93CBE0D1E038
:100F200060E088813DDE6091090170910A01409185
:100F300017028091070190910801C2DE61E088816B
:100F4000DF91CF912DCEE8DFD1CFCF93DF9300D0CB
:100F500000D0CDB7DEB798D269837A838B839C8328
:100F600080911902882311F0BFDF01C0ECDF48EC4B
:100F700050E060E070E0CE010196CCD3F1CFAF92AB
:100F8000BF92CF92DF92EF92FF920F9381E0809316
:100F900019025CD04BDF33DEA12CB12CC12CD12C3B
:100FA000E12CF12C03E020E030E048EC50E069E275
:100FB00071E08FEE97E02FD101E020E030E048ECC7
:100FC00050E067E371E085EA97E025D10F91FF904B
:100FD000EF90DF90CF90BF90AF90089510C2CF9365
:100FE000DF9300D000D0CDB7DEB74ED269837A83CD
:100FF0008B839C8386E491E08AD8892BF9F007DE05
:101000008B019C0137FD0CC077FD03C0C9012AD0BC
:1010100015C066277727601B710BC9013BD00EC036
:1010200088279927821B930B17FD03C0B8014ED068
:1010300005C066277727601B710B60D04AE050E03F
:1010400060E070E0CE01019665D3D4CF61E08AE024
:101050006BDD61E08BE068DD61E086E065DD61E02D
:1010600089E062CDCF93DF93EC019C01261B370B07
:10107000B901665F7F4F8AE0D1DCBE0186E0CEDC3D
:1010800060E070E08BE0CADC60E070E089E0DF9156
:10109000CF91C4CC0F931F93CF93DF93EC018B01BF
:1010A000BC018AE0BBDCBE01601B710B665F7F4F39
:1010B00086E0B4DC60E070E08BE0B0DC60E070E023
:1010C00089E0DF91CF911F910F91A8CCCF93DF934F
:1010D000EC019C01261B370BB901665F7F4F8BE04B
:1010E0009DDCBE0189E09ADC60E070E08AE096DC7D
:1010F00060E070E086E0DF91CF9190CC0F931F937A
:10110000CF93DF93EC018B01BC018BE087DCBE0148
:10111000601B710B665F7F4F89E080DC60E070E0F0
:101120008AE07CDC60E070E086E0DF91CF911F9187
:101130000F9174CCE0914302F091440280818111BF
:1011400004C08FEF9FEFDC010EC0E0914302F091ED
:1011500044020780F085E02D0084F185E02D828136
:101160009381A481B58180931B0290931C02A0936C
:101170001D02B0931E020895CF92DF92EF92FF926C
:10118000E091C902F091CA026283738384839583DC
:10119000C0902502D0902602E0902702F09028020D
:1011A0006C157D058E059F0578F46091C9027091DC
:1011B000CA0280914102909142026E5F7F4FFF9080
:1011C000EF90DF90CF900FC66B017C016091C90258
:1011D0007091CA0280914302909144026E5F7F4FEA
:1011E00002D680911B0290911C02A0911D02B09129
:1011F0001E02C816D906EA06FB0640F4C0921B027E
:10120000D0921C02E0921D02F0921E02FF90EF901D
:10121000DF90CF9008955F926F927F928F929F920E
:10122000AF92BF92CF92DF92EF92FF920F931F93F4
:10123000CF93DF934C01162F572E5A013901C11459
:10124000D10431F4CA0184D36C01892B09F4C6C0DE
:101250008CE290E07DD3EC01009779F0DC8ECB8EB0
:1012600021E0A21AB108AC0CBD1CBC01635E7F4F2B
:10127000E12FF52DCF01089606C0C601F9D3AEC007
:10128000E817F90749F09F014191DB014D93BD013A
:10129000D9012C912111F4CF1CA2102F0A3008F093
:1012A00019E01A8F1DA31EA26E01B2E0CB0ED11C55
:1012B000C60174D5CE010E9671D5DB87CA878AE048
:1012C00090E0A0E0B0E0811B9109A109B1098E87EF
:1012D0009F87A88BB98BDF8BCE8B1FA218A619A670
:1012E0001AA61BA6A301B401C501ECD39983888378
:1012F000E114F10419F0F701D183C0830FB6F8941B
:101300000F92809129028F5F809329028091C902F8
:101310009091CA02892B79F5D093CA02C093C90271
:10132000809129028130B1F58BE5E82E82E0F82E1C
:10133000C70123D5FBE0EF0EF11C29ECE21622E0F9
:10134000F206B1F780E592E018D585E492E015D574
:1013500086E392E012D58BE292E00FD580E592E031
:10136000909344028093430285E492E0909342027A
:10137000809341020FC08091230281110BC0E09144
:10138000C902F091CA02828D081720F0D093CA02D8
:10139000C093C90280911F028F5F80931F028A8DC4
:1013A00090912402981710F480932402ABE08A9F56
:1013B000C0011124B601855A9D4FF4D40F900FBE81
:1013C00080912302882341F0E091C902F091CA0282
:1013D000828D801708F41DD481E001C08FEFDF916A
:1013E000CF911F910F91FF90EF90DF90CF90BF9022
:1013F000AF909F908F907F906F905F900895AF9285
:10140000BF92CF92DF92EF92FF920F93A12CB12C5B
:10141000C12CD12CE12CF12C00E020E030E045E59E
:1014200050E06FE371E08EE29CE0F5DE8130F1F494
:10143000F8944FEF5FEFBA0140931B0250931C02E8
:1014400060931D0270931E02809323021092250266
:101450001092260210922702109228020F91FF90FC
:10146000EF90DF90CF90BF90AF9098C30F91FF9017
:10147000EF90DF90CF90BF90AF90089580911A02C7
:101480008F5F80931A0208950FB6F8940F926091BF
:1014900025027091260280912702909128020F90D8
:1014A0000FBE08958F929F92AF92BF92EF92FF92DC
:1014B0000F931F93CF93DF9380911A028111A9C0DC
:1014C0008091250290912602A0912702B0912802D6
:1014D0000196A11DB11D8093250290932602A09331
:1014E0002702B09328028090250290902602A090B7
:1014F0002702B090280281149104A104B104B1F430
:101500008091430290914402209141023091420225
:10151000309344022093430290934202809341020D
:10152000809120028F5F8093200204DE80911B0255
:1015300090911C02A0911D02B0911E02C0E088167D
:101540009906AA06BB0608F454C0DBE0E09143020A
:10155000F09144028081811104C08FEF9FEFDC0184
:1015600013C0E0914302F09144020780F085E02D22
:1015700000851185F80182819381A481B581881647
:101580009906AA06BB0648F480931B0290931C029E
:10159000A0931D02B0931E022CC07801F2E0EF0E62
:1015A000F11CC70164D4D80158968D919C9159972C
:1015B000892B19F0C8010E965AD4F801928D8091AA
:1015C0002402891710F490932402D99FC00111249A
:1015D000B701855A9D4FE6D3E091C902F091CA0246
:1015E000D8015A969C91828D981708F4AFCFC1E02C
:1015F000ADCFE091C902F091CA02E28DBBE0EB9F52
:10160000F0011124E55AFD4F8081823040F0C1E0A5
:1016100006C0809122028F5F80932202C0E08091F9
:1016200021028111C1E08C2FDF91CF911F910F9189
:10163000FF90EF90BF90AF909F908F900895EF92A2
:10164000FF920F931F93CF93DF930FB6F8940F92EF
:1016500080911A02815080931A0280911A02882385
:1016600011F080E04EC0809129028823D1F38BE0F5
:10167000F82EEE24E39480913602882339F1E0912C
:101680003D02F0913E02C085D185CE010E96EFD38A
:101690008E010E5F1F4FC801EAD39A8D80912402FC
:1016A000891710F490932402F99EC0011124B80107
:1016B000855A9D4F77D3E091C902F091CA029A8D65
:1016C000828D9817C0F2E0922102D5CF809122023C
:1016D000811108C080912102813009F0C2CF99D2D6
:1016E00081E00FC0C1E080912202882399F3DADE05
:1016F0008111C093210280912202815080932202A5
:10170000F2CF0F900FBEDF91CF911F910F91FF90FD
:10171000EF900895AF92BF92CF92DF92EF92FF9237
:101720000F931F93CF93DF9300D000D0CDB7DEB7D8
:101730005C0149835A836B837C83A0DE0091250280
:10174000109126022091270230912802F501808114
:101750009181A281B38149815A816B817C816C0125
:101760007D01C40ED51EE61EF71E081719072A07AD
:101770003B0730F4C816D906EA06FB0660F405C03C
:10178000C816D906EA06FB0640F091E00C151D05C7
:101790002E053F0518F090E001C091E0F501C082F0
:1017A000D182E282F382992349F08091C90290911B
:1017B000CA0202965CD3C701B601DEDC40DF8111AC
:1017C00001C027D20F900F900F900F90DF91CF9113
:1017D0001F910F91FF90EF90DF90CF90BF90AF904F
:1017E0000895CF92DF92EF92FF92CF93DF9300D0D4
:1017F00000D0CDB7DEB7611571058105910511F4F3
:1018000008D221C069837A838B839C8337DEC090A2
:101810002502D0902602E0902702F09028026981EC
:101820007A818B819C81C60ED71EE81EF91E80919D
:10183000C9029091CA0202961AD3C701B6019CDC74
:10184000FEDE8823E9F20F900F900F900F90DF914A
:10185000CF91FF90EF90DF90CF90089580912A0272
:10186000882321F10BDEC0912B02E9DECC23B1F3FA
:101870000FB6F8940F92E0913202F0913302C085D6
:10188000D185CE010296F3D28091290281508093B6
:10189000290280912A02815080932A020F900FBE64
:1018A0008B8D9C8DE5D0CE01E3D0D8CF80915B02AB
:1018B0008230A0F2AED1D2CF80911A02882321F0DB
:1018C00081E0809321020895109221029BE0E09133
:1018D00024029E9FF0011124E55AFD4F8081811161
:1018E00006C080912402815080932402F0CF809121
:1018F000240290E04BE0489F9001499F300D112455
:10190000F901E55AFD4FA181B28114960D90BC9169
:10191000A02DB283A183225A3D4FA217B30731F401
:1019200014962D913C911597328321832BE0289FAB
:10193000F001299FF00D1124E55AFD4F0180F2813D
:10194000E02D808591859093CA028093C902089505
:101950000F931F93CF93DF93EC0190DD8091CB0227
:10196000811121C085ED92E09093D1028093D00245
:101970001092D3021092D2028BED95E09093CF0299
:101980008093CE021092CD021092CC029093D80296
:101990008093D7028CEC92E09093D6028093D5028C
:1019A00081E08093CB02209709F02496CE01019725
:1019B0008A3D954008F053C0E091D002F091D102E9
:1019C000A0EDB2E0828193818C179D0728F022E080
:1019D000EC3CF20749F443C02081318121153105E7
:1019E000B1F3DF01F901EECF0D911C9111970C5F5E
:1019F0001F4F208131812D933C938C1B9D0B89308F
:101A0000910500F1DF01AC0FBD1F13969C938E93DF
:101A10001297D383C28312962D913C91139760ED58
:101A200072E0EB0188819981EC014A815B81421768
:101A3000530710F4BC01F5CF11969C938E93EB01E4
:101A4000B983A88380910D0190910E012281338189
:101A5000821B930B90930E0180930D0102C000E056
:101A600010E0EDDDC801DF91CF911F910F91089536
:101A7000CF93DF93009719F1EC012497FFDC8A8163
:101A80009B81E0EDF2E0A081B18112962D913C9115
:101A900013972817390710F4FD01F5CFB983A883F0
:101AA000D183C08320910D0130910E01820F931FCD
:101AB00090930E0180930D01DF91CF91C0CDDF9106
:101AC000CF91089531E1FC013083319722E22083E8
:101AD0003197A3E3A0833197608331977083319767
:101AE0001082319760E8608331971082319762E00D
:101AF0006083319763E06083319764E0608331975E
:101B000065E06083319766E06083319767E06083CA
:101B1000319768E06083319769E06083319760E1D5
:101B2000608331973083319732E13083319733E1ED
:101B30003083319734E13083319735E13083319709
:101B400036E13083319737E13083319738E13083A4
:101B5000319739E13083319730E23083319731E288
:101B6000308331972083319723E22083319740835C
:101B700031975083319726E22083319727E22083E3
:101B8000319728E22083319729E22083319720E39F
:101B90002083319721E320838697089589E08093FD
:101BA000890083EC809388008BE080938100EFE6CE
:101BB000F0E0808182608083A091C902B091CA0266
:101BC000CD91CDBFDD91DEBFFF91EF91DF91CF9140
:101BD000BF91AF919F918F917F916F915F914F9145
:101BE0003F912F911F910F91FF90EF90DF90CF9039
:101BF000BF90AF909F908F907F906F905F904F902D
:101C00003F902F901F900F900FBE0F90089581E08E
:101C100008950F920FB6F8940F921F9211242F92ED
:101C20003F924F925F926F927F928F929F92AF926C
:101C3000BF92CF92DF92EF92FF920F931F932F9359
:101C40003F934F935F936F937F938F939F93AF9344
:101C5000BF93CF93DF93EF93FF93A091C902B0910D
:101C6000CA020DB60D920EB60D9226DEA091C902E3
:101C7000B091CA02CD91CDBFDD91DEBFFF91EF9152
:101C8000DF91CF91BF91AF919F918F917F916F9194
:101C90005F914F913F912F911F910F91FF90EF9086
:101CA000DF90CF90BF90AF909F908F907F906F907C
:101CB0005F904F903F902F901F900F900FBE0F900E
:101CC00008950F920FB6F8940F921F9211242F923D
:101CD0003F924F925F926F927F928F929F92AF92BC
:101CE000BF92CF92DF92EF92FF920F931F932F93A9
:101CF0003F934F935F936F937F938F939F93AF9394
:101D0000BF93CF93DF93EF93FF93A091C902B0915C
:101D1000CA020DB60D920EB60D92C4DB8111CCDD58
:101D2000A091C902B091CA02CD91CDBFDD91DEBFB5
:101D3000FF91EF91DF91CF91BF91AF919F918F91E3
:101D40007F916F915F914F913F912F911F910F91D3
:101D5000FF90EF90DF90CF90BF90AF909F908F90CB
:101D60007F906F905F904F903F902F901F900F90BB
:101D70000FBE0F900895A5DF1895FC01039692837E
:101D800081834FEF5FEFBA0143835483658376838A
:101D9000908787839287818710820895FC0113863C
:101DA00012860895CF93DF939C01FB01DC0111960D
:101DB000CD91DC911297D583C4838E819F819783C7
:101DC00086838E819F81DC0115967C936E93149798
:101DD0007F836E8333872287F90180818F5F8083C1
:101DE000DF91CF910895EF92FF920F931F93CF93BE
:101DF000DF937C01FB0140815181628173814F3F00
:101E00008FEF58076807780721F4E701A985BA859D
:101E100012C0D701139614968D919C911597EC01E1
:101E2000088119812A813B81401751076207730796
:101E300010F0DC01F0CF14968D919C91159795834D
:101E40008483EC01FF83EE83B783A6831596FC930E
:101E5000EE931497F386E286F70180818F5F80838B
:101E6000DF91CF911F910F91FF90EF900895CF9345
:101E7000DF93FC01A285B38584819581268137811A
:101E8000EC013F832E83C681D7819D838C8311967D
:101E90008D919C9112978E179F0721F41296DC93D7
:101EA000CE931197138612868C9181508C93DF917B
:101EB000CF910895A1E21A2EAA1BBB1BFD010DC0F4
:101EC000AA1FBB1FEE1FFF1FA217B307E407F507EA
:101ED00020F0A21BB30BE40BF50B661F771F881FC6
:101EE000991F1A9469F760957095809590959B015C
:101EF000AC01BD01CF010895EE0FFF1F0590F491D5
:101F0000E02D0994FC0188279927E894219120323B
:101F1000E9F3293010F02E30C8F32B3239F02D328E
:101F200031F4689403C035D0820F911D2191205364
:101F30002A30C8F31EF4909581959F4F089544E48C
:101F400051E000C0FA01A191B081009719F41097F7
:101F5000E1F0CD01DC01CD010D90002011F4C001B4
:101F600013C0FB012191222319F02015D9F7F3CFDB
:101F7000FB012191201519F41E92119606C022230F
:101F8000C1F70D900020A1F7D001FA01A193B08311
:101F900008957AE0979F902D879F802D910D1124B1
:061FA0000895F894FFCF44
:101FA600FFD003D00307000D000C000800DB05007E
:101FB60000000013019502B500F2008700A100930E
:101FC60000000000004B0223005461736B426C75E5
:101FD60065746F6F7468005461736B4C6564004977
:041FE600444C450022
:00000001FF
